{
  "contractName": "CopyrightCenter",
  "abi": [
    {
      "constant": false,
      "inputs": [
        {
          "name": "_admin",
          "type": "address"
        }
      ],
      "name": "removeAdmin",
      "outputs": [],
      "payable": false,
      "stateMutability": "nonpayable",
      "type": "function"
    },
    {
      "constant": true,
      "inputs": [
        {
          "name": "",
          "type": "address"
        }
      ],
      "name": "admins",
      "outputs": [
        {
          "name": "",
          "type": "bool"
        }
      ],
      "payable": false,
      "stateMutability": "view",
      "type": "function"
    },
    {
      "constant": false,
      "inputs": [
        {
          "name": "_admin",
          "type": "address"
        }
      ],
      "name": "addAdmin",
      "outputs": [],
      "payable": false,
      "stateMutability": "nonpayable",
      "type": "function"
    },
    {
      "constant": false,
      "inputs": [],
      "name": "acceptOwnership",
      "outputs": [],
      "payable": false,
      "stateMutability": "nonpayable",
      "type": "function"
    },
    {
      "constant": true,
      "inputs": [],
      "name": "owner",
      "outputs": [
        {
          "name": "",
          "type": "address"
        }
      ],
      "payable": false,
      "stateMutability": "view",
      "type": "function"
    },
    {
      "constant": true,
      "inputs": [],
      "name": "newOwner",
      "outputs": [
        {
          "name": "",
          "type": "address"
        }
      ],
      "payable": false,
      "stateMutability": "view",
      "type": "function"
    },
    {
      "constant": false,
      "inputs": [
        {
          "name": "_newOwner",
          "type": "address"
        }
      ],
      "name": "transferOwnership",
      "outputs": [],
      "payable": false,
      "stateMutability": "nonpayable",
      "type": "function"
    },
    {
      "inputs": [],
      "payable": false,
      "stateMutability": "nonpayable",
      "type": "constructor"
    },
    {
      "anonymous": false,
      "inputs": [
        {
          "indexed": false,
          "name": "_maker",
          "type": "address"
        },
        {
          "indexed": true,
          "name": "_tokenIdOfBP",
          "type": "uint256"
        },
        {
          "indexed": true,
          "name": "_tokenIdOfCR",
          "type": "uint256"
        },
        {
          "indexed": false,
          "name": "_BPHash",
          "type": "string"
        }
      ],
      "name": "Shelf",
      "type": "event"
    },
    {
      "anonymous": false,
      "inputs": [
        {
          "indexed": false,
          "name": "_maker",
          "type": "address"
        },
        {
          "indexed": true,
          "name": "_tokenIdOfBP",
          "type": "uint256"
        },
        {
          "indexed": true,
          "name": "_tokenIdOfCR",
          "type": "uint256"
        },
        {
          "indexed": false,
          "name": "_BPHash",
          "type": "string"
        }
      ],
      "name": "Unshelf",
      "type": "event"
    },
    {
      "anonymous": false,
      "inputs": [
        {
          "indexed": true,
          "name": "_from",
          "type": "address"
        },
        {
          "indexed": true,
          "name": "_to",
          "type": "address"
        }
      ],
      "name": "OwnershipTransferred",
      "type": "event"
    },
    {
      "constant": false,
      "inputs": [
        {
          "name": "_addr",
          "type": "address"
        }
      ],
      "name": "setBPAddress",
      "outputs": [],
      "payable": false,
      "stateMutability": "nonpayable",
      "type": "function"
    },
    {
      "constant": false,
      "inputs": [
        {
          "name": "_addr",
          "type": "address"
        }
      ],
      "name": "setWHaddress",
      "outputs": [],
      "payable": false,
      "stateMutability": "nonpayable",
      "type": "function"
    },
    {
      "constant": false,
      "inputs": [
        {
          "name": "_addr",
          "type": "address"
        }
      ],
      "name": "setCRaddress",
      "outputs": [],
      "payable": false,
      "stateMutability": "nonpayable",
      "type": "function"
    },
    {
      "constant": true,
      "inputs": [
        {
          "name": "BPHash",
          "type": "string"
        },
        {
          "name": "BPmaker",
          "type": "address"
        }
      ],
      "name": "canShelf",
      "outputs": [
        {
          "name": "",
          "type": "bool"
        }
      ],
      "payable": false,
      "stateMutability": "view",
      "type": "function"
    },
    {
      "constant": false,
      "inputs": [
        {
          "name": "BPHash",
          "type": "string"
        },
        {
          "name": "_maker",
          "type": "address"
        }
      ],
      "name": "shelf",
      "outputs": [],
      "payable": false,
      "stateMutability": "nonpayable",
      "type": "function"
    },
    {
      "constant": true,
      "inputs": [
        {
          "name": "BPHash",
          "type": "string"
        }
      ],
      "name": "canUnshelf",
      "outputs": [
        {
          "name": "",
          "type": "bool"
        }
      ],
      "payable": false,
      "stateMutability": "view",
      "type": "function"
    },
    {
      "constant": false,
      "inputs": [
        {
          "name": "BPHash",
          "type": "string"
        }
      ],
      "name": "unshelf",
      "outputs": [],
      "payable": false,
      "stateMutability": "nonpayable",
      "type": "function"
    },
    {
      "constant": true,
      "inputs": [
        {
          "name": "BPHash",
          "type": "string"
        }
      ],
      "name": "haveShelf",
      "outputs": [
        {
          "name": "",
          "type": "bool"
        }
      ],
      "payable": false,
      "stateMutability": "view",
      "type": "function"
    },
    {
      "constant": true,
      "inputs": [
        {
          "name": "BPHash",
          "type": "string"
        }
      ],
      "name": "getTokenIdOfCR",
      "outputs": [
        {
          "name": "",
          "type": "uint256"
        }
      ],
      "payable": false,
      "stateMutability": "view",
      "type": "function"
    }
  ],
  "bytecode": "0x608060405234801561001057600080fd5b50336000806101000a81548173ffffffffffffffffffffffffffffffffffffffff021916908373ffffffffffffffffffffffffffffffffffffffff1602179055506001600260003373ffffffffffffffffffffffffffffffffffffffff1673ffffffffffffffffffffffffffffffffffffffff16815260200190815260200160002060006101000a81548160ff021916908315150217905550612516806100b86000396000f3006080604052600436106100e6576000357c0100000000000000000000000000000000000000000000000000000000900463ffffffff1680630ec52541146100eb5780631785f53c14610154578063429b62e5146101975780634901a205146101f25780635aec11d414610293578063704802751461031457806379ba5097146103575780637c85df241461036e5780638da5cb5b146103b1578063d39b7e4f14610408578063d4ed0b461461044b578063d4ee1d901461048e578063e698816f146104e5578063e6c9f6ee14610562578063f2fde38b146105eb578063f7fc8a911461062e575b600080fd5b3480156100f757600080fd5b50610152600480360381019080803590602001908201803590602001908080601f01602080910402602001604051908101604052809392919081815260200183838082843782019150505050505091929192905050506106af565b005b34801561016057600080fd5b50610195600480360381019080803573ffffffffffffffffffffffffffffffffffffffff169060200190929190505050610d08565b005b3480156101a357600080fd5b506101d8600480360381019080803573ffffffffffffffffffffffffffffffffffffffff169060200190929190505050610db5565b604051808215151515815260200191505060405180910390f35b3480156101fe57600080fd5b50610279600480360381019080803590602001908201803590602001908080601f0160208091040260200160405190810160405280939291908181526020018383808284378201915050505050509192919290803573ffffffffffffffffffffffffffffffffffffffff169060200190929190505050610dd5565b604051808215151515815260200191505060405180910390f35b34801561029f57600080fd5b506102fa600480360381019080803590602001908201803590602001908080601f016020809104026020016040519081016040528093929190818152602001838380828437820191505050505050919291929050505061133f565b604051808215151515815260200191505060405180910390f35b34801561032057600080fd5b50610355600480360381019080803573ffffffffffffffffffffffffffffffffffffffff1690602001909291905050506116bf565b005b34801561036357600080fd5b5061036c611775565b005b34801561037a57600080fd5b506103af600480360381019080803573ffffffffffffffffffffffffffffffffffffffff169060200190929190505050611914565b005b3480156103bd57600080fd5b506103c66119da565b604051808273ffffffffffffffffffffffffffffffffffffffff1673ffffffffffffffffffffffffffffffffffffffff16815260200191505060405180910390f35b34801561041457600080fd5b50610449600480360381019080803573ffffffffffffffffffffffffffffffffffffffff1690602001909291905050506119ff565b005b34801561045757600080fd5b5061048c600480360381019080803573ffffffffffffffffffffffffffffffffffffffff169060200190929190505050611ac5565b005b34801561049a57600080fd5b506104a3611b8b565b604051808273ffffffffffffffffffffffffffffffffffffffff1673ffffffffffffffffffffffffffffffffffffffff16815260200191505060405180910390f35b3480156104f157600080fd5b5061054c600480360381019080803590602001908201803590602001908080601f0160208091040260200160405190810160405280939291908181526020018383808284378201915050505050509192919290505050611bb1565b6040518082815260200191505060405180910390f35b34801561056e57600080fd5b506105e9600480360381019080803590602001908201803590602001908080601f0160208091040260200160405190810160405280939291908181526020018383808284378201915050505050509192919290803573ffffffffffffffffffffffffffffffffffffffff169060200190929190505050611c26565b005b3480156105f757600080fd5b5061062c600480360381019080803573ffffffffffffffffffffffffffffffffffffffff16906020019092919050505061228b565b005b34801561063a57600080fd5b50610695600480360381019080803590602001908201803590602001908080601f016020809104026020016040519081016040528093929190818152602001838380828437820191505050505050919291929050505061232a565b604051808215151515815260200191505060405180910390f35b600080600080600080600260003373ffffffffffffffffffffffffffffffffffffffff1673ffffffffffffffffffffffffffffffffffffffff16815260200190815260200160002060009054906101000a900460ff16151561071057600080fd5b600560009054906101000a900473ffffffffffffffffffffffffffffffffffffffff169550600460009054906101000a900473ffffffffffffffffffffffffffffffffffffffff1694506006876040518082805190602001908083835b602083101515610792578051825260208201915060208101905060208303925061076d565b6001836020036101000a03801982511681845116808217855250505050505090500191505090815260200160405180910390205493508473ffffffffffffffffffffffffffffffffffffffff16631e7663bc886040518263ffffffff167c01000000000000000000000000000000000000000000000000000000000281526004018080602001828103825283818151815260200191508051906020019080838360005b83811015610850578082015181840152602081019050610835565b50505050905090810190601f16801561087d5780820380516001836020036101000a031916815260200191505b5092505050602060405180830381600087803b15801561089c57600080fd5b505af11580156108b0573d6000803e3d6000fd5b505050506040513d60208110156108c657600080fd5b810190808051906020019092919050505092506108e28761133f565b15156108ed57600080fd5b8573ffffffffffffffffffffffffffffffffffffffff16636352211e856040518263ffffffff167c010000000000000000000000000000000000000000000000000000000002815260040180828152602001915050602060405180830381600087803b15801561095c57600080fd5b505af1158015610970573d6000803e3d6000fd5b505050506040513d602081101561098657600080fd5b810190808051906020019092919050505091508573ffffffffffffffffffffffffffffffffffffffff1663c4f06ba9856040518263ffffffff167c010000000000000000000000000000000000000000000000000000000002815260040180828152602001915050602060405180830381600087803b158015610a0857600080fd5b505af1158015610a1c573d6000803e3d6000fd5b505050506040513d6020811015610a3257600080fd5b810190808051906020019092919050505090508573ffffffffffffffffffffffffffffffffffffffff1663b8ce670d8386846040518463ffffffff167c0100000000000000000000000000000000000000000000000000000000028152600401808473ffffffffffffffffffffffffffffffffffffffff1673ffffffffffffffffffffffffffffffffffffffff1681526020018381526020018273ffffffffffffffffffffffffffffffffffffffff1673ffffffffffffffffffffffffffffffffffffffff1681526020019350505050600060405180830381600087803b158015610b1c57600080fd5b505af1158015610b30573d6000803e3d6000fd5b505050508473ffffffffffffffffffffffffffffffffffffffff1663765207138860006040518363ffffffff167c0100000000000000000000000000000000000000000000000000000000028152600401808060200183151515158152602001828103825284818151815260200191508051906020019080838360005b83811015610bc8578082015181840152602081019050610bad565b50505050905090810190601f168015610bf55780820380516001836020036101000a031916815260200191505b509350505050600060405180830381600087803b158015610c1557600080fd5b505af1158015610c29573d6000803e3d6000fd5b5050505083837f3322890fc15d7db1123d16760d43eddc154a09a560550fad3acd9f2d055c58d9838a604051808373ffffffffffffffffffffffffffffffffffffffff1673ffffffffffffffffffffffffffffffffffffffff16815260200180602001828103825283818151815260200191508051906020019080838360005b83811015610cc4578082015181840152602081019050610ca9565b50505050905090810190601f168015610cf15780820380516001836020036101000a031916815260200191505b50935050505060405180910390a350505050505050565b6000809054906101000a900473ffffffffffffffffffffffffffffffffffffffff1673ffffffffffffffffffffffffffffffffffffffff163373ffffffffffffffffffffffffffffffffffffffff16141515610d6357600080fd5b600260008273ffffffffffffffffffffffffffffffffffffffff1673ffffffffffffffffffffffffffffffffffffffff16815260200190815260200160002060006101000a81549060ff021916905550565b60026020528060005260406000206000915054906101000a900460ff1681565b600080600080600080600360009054906101000a900473ffffffffffffffffffffffffffffffffffffffff169450600360009054906101000a900473ffffffffffffffffffffffffffffffffffffffff169350600460009054906101000a900473ffffffffffffffffffffffffffffffffffffffff1692508273ffffffffffffffffffffffffffffffffffffffff16631e7663bc896040518263ffffffff167c01000000000000000000000000000000000000000000000000000000000281526004018080602001828103825283818151815260200191508051906020019080838360005b83811015610ed5578082015181840152602081019050610eba565b50505050905090810190601f168015610f025780820380516001836020036101000a031916815260200191505b5092505050602060405180830381600087803b158015610f2157600080fd5b505af1158015610f35573d6000803e3d6000fd5b505050506040513d6020811015610f4b57600080fd5b810190808051906020019092919050505091506006886040518082805190602001908083835b602083101515610f965780518252602082019150602081019050602083039250610f71565b6001836020036101000a03801982511681845116808217855250505050505090500191505090815260200160405180910390205490508473ffffffffffffffffffffffffffffffffffffffff16634f558e79836040518263ffffffff167c010000000000000000000000000000000000000000000000000000000002815260040180828152602001915050602060405180830381600087803b15801561103b57600080fd5b505af115801561104f573d6000803e3d6000fd5b505050506040513d602081101561106557600080fd5b8101908080519060200190929190505050801561115657508673ffffffffffffffffffffffffffffffffffffffff168573ffffffffffffffffffffffffffffffffffffffff1663c4f06ba9846040518263ffffffff167c010000000000000000000000000000000000000000000000000000000002815260040180828152602001915050602060405180830381600087803b15801561110357600080fd5b505af1158015611117573d6000803e3d6000fd5b505050506040513d602081101561112d57600080fd5b810190808051906020019092919050505073ffffffffffffffffffffffffffffffffffffffff16145b801561120957508373ffffffffffffffffffffffffffffffffffffffff16634f558e79826040518263ffffffff167c010000000000000000000000000000000000000000000000000000000002815260040180828152602001915050602060405180830381600087803b1580156111cc57600080fd5b505af11580156111e0573d6000803e3d6000fd5b505050506040513d60208110156111f657600080fd5b8101908080519060200190929190505050155b801561132157508273ffffffffffffffffffffffffffffffffffffffff16633be746b6896040518263ffffffff167c01000000000000000000000000000000000000000000000000000000000281526004018080602001828103825283818151815260200191508051906020019080838360005b8381101561129857808201518184015260208101905061127d565b50505050905090810190601f1680156112c55780820380516001836020036101000a031916815260200191505b5092505050602060405180830381600087803b1580156112e457600080fd5b505af11580156112f8573d6000803e3d6000fd5b505050506040513d602081101561130e57600080fd5b8101908080519060200190929190505050155b1561132f5760019550611334565b600095505b505050505092915050565b6000806000806000600560009054906101000a900473ffffffffffffffffffffffffffffffffffffffff169350600460009054906101000a900473ffffffffffffffffffffffffffffffffffffffff1692506006866040518082805190602001908083835b6020831015156113c957805182526020820191506020810190506020830392506113a4565b6001836020036101000a03801982511681845116808217855250505050505090500191505090815260200160405180910390205491508373ffffffffffffffffffffffffffffffffffffffff1663c4f06ba9836040518263ffffffff167c010000000000000000000000000000000000000000000000000000000002815260040180828152602001915050602060405180830381600087803b15801561146e57600080fd5b505af1158015611482573d6000803e3d6000fd5b505050506040513d602081101561149857600080fd5b810190808051906020019092919050505090508373ffffffffffffffffffffffffffffffffffffffff16634f558e79836040518263ffffffff167c010000000000000000000000000000000000000000000000000000000002815260040180828152602001915050602060405180830381600087803b15801561151a57600080fd5b505af115801561152e573d6000803e3d6000fd5b505050506040513d602081101561154457600080fd5b8101908080519060200190929190505050801561158c57508073ffffffffffffffffffffffffffffffffffffffff163373ffffffffffffffffffffffffffffffffffffffff16145b80156116a357508273ffffffffffffffffffffffffffffffffffffffff16633be746b6876040518263ffffffff167c01000000000000000000000000000000000000000000000000000000000281526004018080602001828103825283818151815260200191508051906020019080838360005b8381101561161b578082015181840152602081019050611600565b50505050905090810190601f1680156116485780820380516001836020036101000a031916815260200191505b5092505050602060405180830381600087803b15801561166757600080fd5b505af115801561167b573d6000803e3d6000fd5b505050506040513d602081101561169157600080fd5b81019080805190602001909291905050505b156116b157600194506116b6565b600094505b50505050919050565b6000809054906101000a900473ffffffffffffffffffffffffffffffffffffffff1673ffffffffffffffffffffffffffffffffffffffff163373ffffffffffffffffffffffffffffffffffffffff1614151561171a57600080fd5b6001600260008373ffffffffffffffffffffffffffffffffffffffff1673ffffffffffffffffffffffffffffffffffffffff16815260200190815260200160002060006101000a81548160ff02191690831515021790555050565b600160009054906101000a900473ffffffffffffffffffffffffffffffffffffffff1673ffffffffffffffffffffffffffffffffffffffff163373ffffffffffffffffffffffffffffffffffffffff161415156117d157600080fd5b600160009054906101000a900473ffffffffffffffffffffffffffffffffffffffff1673ffffffffffffffffffffffffffffffffffffffff166000809054906101000a900473ffffffffffffffffffffffffffffffffffffffff1673ffffffffffffffffffffffffffffffffffffffff167f8be0079c531659141344cd1fd0a4f28419497f9722a3daafe3b4186f6b6457e060405160405180910390a3600160009054906101000a900473ffffffffffffffffffffffffffffffffffffffff166000806101000a81548173ffffffffffffffffffffffffffffffffffffffff021916908373ffffffffffffffffffffffffffffffffffffffff1602179055506000600160006101000a81548173ffffffffffffffffffffffffffffffffffffffff021916908373ffffffffffffffffffffffffffffffffffffffff160217905550565b600260003373ffffffffffffffffffffffffffffffffffffffff1673ffffffffffffffffffffffffffffffffffffffff16815260200190815260200160002060009054906101000a900460ff16151561196c57600080fd5b61198b8173ffffffffffffffffffffffffffffffffffffffff166124b6565b151561199657600080fd5b80600460006101000a81548173ffffffffffffffffffffffffffffffffffffffff021916908373ffffffffffffffffffffffffffffffffffffffff16021790555050565b6000809054906101000a900473ffffffffffffffffffffffffffffffffffffffff1681565b600260003373ffffffffffffffffffffffffffffffffffffffff1673ffffffffffffffffffffffffffffffffffffffff16815260200190815260200160002060009054906101000a900460ff161515611a5757600080fd5b611a768173ffffffffffffffffffffffffffffffffffffffff166124b6565b1515611a8157600080fd5b80600360006101000a81548173ffffffffffffffffffffffffffffffffffffffff021916908373ffffffffffffffffffffffffffffffffffffffff16021790555050565b600260003373ffffffffffffffffffffffffffffffffffffffff1673ffffffffffffffffffffffffffffffffffffffff16815260200190815260200160002060009054906101000a900460ff161515611b1d57600080fd5b611b3c8173ffffffffffffffffffffffffffffffffffffffff166124b6565b1515611b4757600080fd5b80600560006101000a81548173ffffffffffffffffffffffffffffffffffffffff021916908373ffffffffffffffffffffffffffffffffffffffff16021790555050565b600160009054906101000a900473ffffffffffffffffffffffffffffffffffffffff1681565b60006006826040518082805190602001908083835b602083101515611beb5780518252602082019150602081019050602083039250611bc6565b6001836020036101000a0380198251168184511680821785525050505050509050019150509081526020016040518091039020549050919050565b600080600080600260003373ffffffffffffffffffffffffffffffffffffffff1673ffffffffffffffffffffffffffffffffffffffff16815260200190815260200160002060009054906101000a900460ff161515611c8457600080fd5b611c8e8686610dd5565b1515611c9957600080fd5b600560009054906101000a900473ffffffffffffffffffffffffffffffffffffffff169350600460009054906101000a900473ffffffffffffffffffffffffffffffffffffffff169250611d9560018573ffffffffffffffffffffffffffffffffffffffff166318160ddd6040518163ffffffff167c0100000000000000000000000000000000000000000000000000000000028152600401602060405180830381600087803b158015611d4c57600080fd5b505af1158015611d60573d6000803e3d6000fd5b505050506040513d6020811015611d7657600080fd5b81019080805190602001909291905050506124c990919063ffffffff16565b91508273ffffffffffffffffffffffffffffffffffffffff16631e7663bc876040518263ffffffff167c01000000000000000000000000000000000000000000000000000000000281526004018080602001828103825283818151815260200191508051906020019080838360005b83811015611e1f578082015181840152602081019050611e04565b50505050905090810190601f168015611e4c5780820380516001836020036101000a031916815260200191505b5092505050602060405180830381600087803b158015611e6b57600080fd5b505af1158015611e7f573d6000803e3d6000fd5b505050506040513d6020811015611e9557600080fd5b810190808051906020019092919050505090508373ffffffffffffffffffffffffffffffffffffffff16634f558e79836040518263ffffffff167c010000000000000000000000000000000000000000000000000000000002815260040180828152602001915050602060405180830381600087803b158015611f1757600080fd5b505af1158015611f2b573d6000803e3d6000fd5b505050506040513d6020811015611f4157600080fd5b81019080805190602001909291905050501515612283578373ffffffffffffffffffffffffffffffffffffffff16630d4d15133384886040518463ffffffff167c0100000000000000000000000000000000000000000000000000000000028152600401808473ffffffffffffffffffffffffffffffffffffffff1673ffffffffffffffffffffffffffffffffffffffff1681526020018381526020018273ffffffffffffffffffffffffffffffffffffffff1673ffffffffffffffffffffffffffffffffffffffff1681526020019350505050600060405180830381600087803b15801561202f57600080fd5b505af1158015612043573d6000803e3d6000fd5b505050508273ffffffffffffffffffffffffffffffffffffffff1663765207138760016040518363ffffffff167c0100000000000000000000000000000000000000000000000000000000028152600401808060200183151515158152602001828103825284818151815260200191508051906020019080838360005b838110156120db5780820151818401526020810190506120c0565b50505050905090810190601f1680156121085780820380516001836020036101000a031916815260200191505b509350505050600060405180830381600087803b15801561212857600080fd5b505af115801561213c573d6000803e3d6000fd5b50505050816006876040518082805190602001908083835b6020831015156121795780518252602082019150602081019050602083039250612154565b6001836020036101000a03801982511681845116808217855250505050505090500191505090815260200160405180910390208190555081817f73698d4acab893b46d7bd0d1cd29fe4f05e515c2a92710f2c8adf598ecef41e38789604051808373ffffffffffffffffffffffffffffffffffffffff1673ffffffffffffffffffffffffffffffffffffffff16815260200180602001828103825283818151815260200191508051906020019080838360005b8381101561224757808201518184015260208101905061222c565b50505050905090810190601f1680156122745780820380516001836020036101000a031916815260200191505b50935050505060405180910390a35b505050505050565b6000809054906101000a900473ffffffffffffffffffffffffffffffffffffffff1673ffffffffffffffffffffffffffffffffffffffff163373ffffffffffffffffffffffffffffffffffffffff161415156122e657600080fd5b80600160006101000a81548173ffffffffffffffffffffffffffffffffffffffff021916908373ffffffffffffffffffffffffffffffffffffffff16021790555050565b6000806000600560009054906101000a900473ffffffffffffffffffffffffffffffffffffffff1691506006846040518082805190602001908083835b60208310151561238c5780518252602082019150602081019050602083039250612367565b6001836020036101000a0380198251168184511680821785525050505050509050019150509081526020016040518091039020549050600073ffffffffffffffffffffffffffffffffffffffff168273ffffffffffffffffffffffffffffffffffffffff1663c4f06ba9836040518263ffffffff167c010000000000000000000000000000000000000000000000000000000002815260040180828152602001915050602060405180830381600087803b15801561244957600080fd5b505af115801561245d573d6000803e3d6000fd5b505050506040513d602081101561247357600080fd5b810190808051906020019092919050505073ffffffffffffffffffffffffffffffffffffffff161415156124aa57600192506124af565b600092505b5050919050565b600080823b905060008111915050919050565b60008082840190508381101515156124e057600080fd5b80915050929150505600a165627a7a72305820948efd182445e9220e570efc8e98793165231eba15137a5510600062a3aa53180029",
  "source": "pragma solidity ^0.4.24;\r\n\r\nimport \"./Owned.sol\";\r\nimport \"./AddressUtils.sol\";\r\nimport \"./SafeMath.sol\";\r\n\r\ncontract CopyrightCenter is Owned {\r\n    using AddressUtils for address;\r\n    using SafeMath for uint256;\r\n\r\n    address BPaddress; // BP, ERC721\r\n    address WHaddress; // WareHouse\r\n    address CRaddress; // CopyrightXBP,BP\r\n\r\n    mapping(string => uint256) indexOfCRhash;\r\n\r\n    event Shelf(address _maker, uint256 indexed _tokenIdOfBP, uint256 indexed _tokenIdOfCR, string _BPHash);\r\n    event Unshelf(address _maker, uint256 indexed _tokenIdOfBP, uint256 indexed _tokenIdOfCR, string _BPHash);\r\n\r\n    constructor()\r\n        public\r\n    {\r\n        owner = msg.sender;\r\n        admins[msg.sender] = true;\r\n    }\r\n\r\n    function setBPAddress(address _addr)\r\n        public\r\n        onlyAdmins\r\n    {\r\n        require(_addr.isContract());\r\n        BPaddress = _addr;\r\n    }\r\n\r\n    function setWHaddress(address _addr)\r\n        public\r\n        onlyAdmins\r\n    {\r\n        require(_addr.isContract());\r\n        WHaddress = _addr;\r\n    }\r\n\r\n    function setCRaddress(address _addr)\r\n        public\r\n        onlyAdmins\r\n    {\r\n        require(_addr.isContract());\r\n        CRaddress = _addr;\r\n    }\r\n\r\n    function canShelf(string BPHash, address BPmaker)\r\n        public\r\n        view\r\n        returns(bool)\r\n    {\r\n        BP bp = BP(BPaddress);\r\n        BP cr = BP(BPaddress);\r\n        WareHouse wh = WareHouse(WHaddress);\r\n        uint256 _indexOfBP = wh.getTokenId(BPHash);\r\n        uint256 _indexOfCR = indexOfCRhash[BPHash];\r\n\r\n        if(bp.exists(_indexOfBP) && bp.makerOf(_indexOfBP) == BPmaker && !cr.exists(_indexOfCR) && !wh.lockState(BPHash)) {\r\n            return true;\r\n        } else {\r\n            return false;\r\n        }\r\n    }\r\n\r\n    function shelf(string BPHash, address _maker)\r\n        public\r\n        onlyAdmins\r\n    {\r\n        require(canShelf(BPHash, _maker));\r\n        BP cr = BP(CRaddress);\r\n        WareHouse wh = WareHouse(WHaddress);\r\n        \r\n        // tokenId 0\r\n        uint256 _tokenIdOfCR = cr.totalSupply().add(1);\r\n\r\n        uint256 _tokenIdOfBP = wh.getTokenId(BPHash);\r\n\r\n        if(!cr.exists(_tokenIdOfCR)) {\r\n            cr.mint(msg.sender, _tokenIdOfCR , _maker);\r\n            wh.setLock(BPHash, true);\r\n\r\n            indexOfCRhash[BPHash] = _tokenIdOfCR;\r\n\r\n            emit Shelf(_maker, _tokenIdOfBP, _tokenIdOfCR, BPHash);\r\n        }\r\n\r\n    }\r\n    \r\n    function canUnshelf(string BPHash)\r\n        public\r\n        view\r\n        returns(bool)\r\n    {\r\n        BP cr = BP(CRaddress);\r\n        WareHouse wh = WareHouse(WHaddress);\r\n        uint256 _tokenId = indexOfCRhash[BPHash];\r\n        address _maker = cr.makerOf(_tokenId);\r\n\r\n        if(cr.exists(_tokenId) && msg.sender == _maker && wh.lockState(BPHash)) {\r\n            return true;\r\n        } else {\r\n            return false;\r\n        }\r\n    }\r\n\r\n\r\n    function unshelf(string BPHash)\r\n        public\r\n        onlyAdmins\r\n    {\r\n        BP cr = BP(CRaddress);\r\n        WareHouse wh = WareHouse(WHaddress);\r\n\r\n        uint256 _tokenIdOfCR = indexOfCRhash[BPHash];\r\n        uint256 _tokenIdOfBP = wh.getTokenId(BPHash);\r\n\r\n        require(canUnshelf(BPHash));\r\n        address _owner = cr.ownerOf(_tokenIdOfCR);\r\n        address _maker = cr.makerOf(_tokenIdOfCR);\r\n\r\n        cr.burn(_owner, _tokenIdOfCR, _maker);\r\n\r\n        wh.setLock(BPHash, false);\r\n\r\n        emit Unshelf(_maker, _tokenIdOfBP, _tokenIdOfCR, BPHash);\r\n\r\n    }\r\n\r\n    function haveShelf(string BPHash)\r\n        public\r\n        view\r\n        returns(bool)\r\n    {\r\n        BP cr = BP(CRaddress);\r\n        uint256 _tokenIdOfCR = indexOfCRhash[BPHash];\r\n        if(cr.makerOf(_tokenIdOfCR) != address(0)) {\r\n            return true;\r\n        } else {\r\n            return false;\r\n        }\r\n    }\r\n\r\n    function getTokenIdOfCR(string BPHash)\r\n        public\r\n        view\r\n        returns(uint256)\r\n    {\r\n        return indexOfCRhash[BPHash];    \r\n    }\r\n\r\n}\r\n\r\ninterface BP {\r\n    function mint(address _to, uint256 _tokenId, address _maker) external;\r\n    function burn(address _owner, uint256 _tokenId, address _maker) external;\r\n    function totalSupply() external view returns (uint256);\r\n    function exists(uint256 _tokenId) external view returns (bool _exists);    \r\n    function makerOf(uint256 _tokenId) external view returns (address);\r\n    function ownerOf(uint256 _tokenId) external view returns (address);\r\n}\r\n\r\ninterface WareHouse {\r\n    function getTokenId(string BPhash) external view returns(uint256);\r\n    function setLock(string BPhash, bool isLock) external;\r\n    function lockState(string BPhash) external view returns(bool);\r\n}",
  "sourcePath": "/Users/zhouliqihan/proj/tac/LeblockPlatformJs/contracts/CopyrightCenter.sol",
  "compiler": {
    "name": "solc",
    "version": "0.4.24+commit.e67f0147.Emscripten.clang"
  },
  "schemaVersion": "2.0.1",
  "updatedAt": "2018-09-25T17:30:05.729Z"
}