{
  "contractName": "CopyrightCenterMC",
  "abi": [
    {
      "constant": false,
      "inputs": [
        {
          "name": "_admin",
          "type": "address"
        }
      ],
      "name": "removeAdmin",
      "outputs": [],
      "payable": false,
      "stateMutability": "nonpayable",
      "type": "function"
    },
    {
      "constant": true,
      "inputs": [
        {
          "name": "",
          "type": "address"
        }
      ],
      "name": "admins",
      "outputs": [
        {
          "name": "",
          "type": "bool"
        }
      ],
      "payable": false,
      "stateMutability": "view",
      "type": "function"
    },
    {
      "constant": false,
      "inputs": [
        {
          "name": "_admin",
          "type": "address"
        }
      ],
      "name": "addAdmin",
      "outputs": [],
      "payable": false,
      "stateMutability": "nonpayable",
      "type": "function"
    },
    {
      "constant": false,
      "inputs": [],
      "name": "acceptOwnership",
      "outputs": [],
      "payable": false,
      "stateMutability": "nonpayable",
      "type": "function"
    },
    {
      "constant": true,
      "inputs": [],
      "name": "owner",
      "outputs": [
        {
          "name": "",
          "type": "address"
        }
      ],
      "payable": false,
      "stateMutability": "view",
      "type": "function"
    },
    {
      "constant": true,
      "inputs": [],
      "name": "newOwner",
      "outputs": [
        {
          "name": "",
          "type": "address"
        }
      ],
      "payable": false,
      "stateMutability": "view",
      "type": "function"
    },
    {
      "constant": false,
      "inputs": [
        {
          "name": "_newOwner",
          "type": "address"
        }
      ],
      "name": "transferOwnership",
      "outputs": [],
      "payable": false,
      "stateMutability": "nonpayable",
      "type": "function"
    },
    {
      "inputs": [],
      "payable": false,
      "stateMutability": "nonpayable",
      "type": "constructor"
    },
    {
      "anonymous": false,
      "inputs": [
        {
          "indexed": false,
          "name": "_maker",
          "type": "address"
        },
        {
          "indexed": true,
          "name": "_tokenIdOfCR",
          "type": "uint256"
        },
        {
          "indexed": false,
          "name": "_BPHash",
          "type": "string"
        }
      ],
      "name": "Shelf",
      "type": "event"
    },
    {
      "anonymous": false,
      "inputs": [
        {
          "indexed": false,
          "name": "_maker",
          "type": "address"
        },
        {
          "indexed": true,
          "name": "_tokenIdOfCR",
          "type": "uint256"
        },
        {
          "indexed": false,
          "name": "_BPHash",
          "type": "string"
        }
      ],
      "name": "Unshelf",
      "type": "event"
    },
    {
      "anonymous": false,
      "inputs": [
        {
          "indexed": true,
          "name": "_from",
          "type": "address"
        },
        {
          "indexed": true,
          "name": "_to",
          "type": "address"
        }
      ],
      "name": "OwnershipTransferred",
      "type": "event"
    },
    {
      "constant": false,
      "inputs": [
        {
          "name": "_addr",
          "type": "address"
        }
      ],
      "name": "setCRaddress",
      "outputs": [],
      "payable": false,
      "stateMutability": "nonpayable",
      "type": "function"
    },
    {
      "constant": true,
      "inputs": [
        {
          "name": "BPHash",
          "type": "string"
        }
      ],
      "name": "canShelf",
      "outputs": [
        {
          "name": "",
          "type": "bool"
        }
      ],
      "payable": false,
      "stateMutability": "view",
      "type": "function"
    },
    {
      "constant": false,
      "inputs": [
        {
          "name": "BPHash",
          "type": "string"
        },
        {
          "name": "_maker",
          "type": "address"
        }
      ],
      "name": "shelf",
      "outputs": [],
      "payable": false,
      "stateMutability": "nonpayable",
      "type": "function"
    },
    {
      "constant": true,
      "inputs": [
        {
          "name": "BPHash",
          "type": "string"
        }
      ],
      "name": "canUnshelf",
      "outputs": [
        {
          "name": "",
          "type": "bool"
        }
      ],
      "payable": false,
      "stateMutability": "view",
      "type": "function"
    },
    {
      "constant": false,
      "inputs": [
        {
          "name": "BPHash",
          "type": "string"
        }
      ],
      "name": "unshelf",
      "outputs": [],
      "payable": false,
      "stateMutability": "nonpayable",
      "type": "function"
    },
    {
      "constant": true,
      "inputs": [
        {
          "name": "BPHash",
          "type": "string"
        }
      ],
      "name": "haveShelf",
      "outputs": [
        {
          "name": "",
          "type": "bool"
        }
      ],
      "payable": false,
      "stateMutability": "view",
      "type": "function"
    },
    {
      "constant": true,
      "inputs": [
        {
          "name": "BPHash",
          "type": "string"
        }
      ],
      "name": "getTokenIdOfCR",
      "outputs": [
        {
          "name": "",
          "type": "uint256"
        }
      ],
      "payable": false,
      "stateMutability": "view",
      "type": "function"
    }
  ],
  "bytecode": "0x608060405234801561001057600080fd5b50336000806101000a81548173ffffffffffffffffffffffffffffffffffffffff021916908373ffffffffffffffffffffffffffffffffffffffff1602179055506001600260003373ffffffffffffffffffffffffffffffffffffffff1673ffffffffffffffffffffffffffffffffffffffff16815260200190815260200160002060006101000a81548160ff021916908315150217905550611832806100b86000396000f3006080604052600436106100d0576000357c0100000000000000000000000000000000000000000000000000000000900463ffffffff1680630ec52541146100d55780631785f53c1461013e5780633718a92314610181578063429b62e5146102025780635aec11d41461025d57806370480275146102de57806379ba5097146103215780638da5cb5b14610338578063d4ed0b461461038f578063d4ee1d90146103d2578063e698816f14610429578063e6c9f6ee146104a6578063f2fde38b1461052f578063f7fc8a9114610572575b600080fd5b3480156100e157600080fd5b5061013c600480360381019080803590602001908201803590602001908080601f01602080910402602001604051908101604052809392919081815260200183838082843782019150505050505091929192905050506105f3565b005b34801561014a57600080fd5b5061017f600480360381019080803573ffffffffffffffffffffffffffffffffffffffff169060200190929190505050610a17565b005b34801561018d57600080fd5b506101e8600480360381019080803590602001908201803590602001908080601f0160208091040260200160405190810160405280939291908181526020018383808284378201915050505050509192919290505050610ac4565b604051808215151515815260200191505060405180910390f35b34801561020e57600080fd5b50610243600480360381019080803573ffffffffffffffffffffffffffffffffffffffff169060200190929190505050610c21565b604051808215151515815260200191505060405180910390f35b34801561026957600080fd5b506102c4600480360381019080803590602001908201803590602001908080601f0160208091040260200160405190810160405280939291908181526020018383808284378201915050505050509192919290505050610c41565b604051808215151515815260200191505060405180910390f35b3480156102ea57600080fd5b5061031f600480360381019080803573ffffffffffffffffffffffffffffffffffffffff169060200190929190505050610d9d565b005b34801561032d57600080fd5b50610336610e53565b005b34801561034457600080fd5b5061034d610ff2565b604051808273ffffffffffffffffffffffffffffffffffffffff1673ffffffffffffffffffffffffffffffffffffffff16815260200191505060405180910390f35b34801561039b57600080fd5b506103d0600480360381019080803573ffffffffffffffffffffffffffffffffffffffff169060200190929190505050611017565b005b3480156103de57600080fd5b506103e76110dd565b604051808273ffffffffffffffffffffffffffffffffffffffff1673ffffffffffffffffffffffffffffffffffffffff16815260200191505060405180910390f35b34801561043557600080fd5b50610490600480360381019080803590602001908201803590602001908080601f0160208091040260200160405190810160405280939291908181526020018383808284378201915050505050509192919290505050611103565b6040518082815260200191505060405180910390f35b3480156104b257600080fd5b5061052d600480360381019080803590602001908201803590602001908080601f0160208091040260200160405190810160405280939291908181526020018383808284378201915050505050509192919290803573ffffffffffffffffffffffffffffffffffffffff169060200190929190505050611178565b005b34801561053b57600080fd5b50610570600480360381019080803573ffffffffffffffffffffffffffffffffffffffff1690602001909291905050506115a7565b005b34801561057e57600080fd5b506105d9600480360381019080803590602001908201803590602001908080601f0160208091040260200160405190810160405280939291908181526020018383808284378201915050505050509192919290505050611646565b604051808215151515815260200191505060405180910390f35b600080600080600260003373ffffffffffffffffffffffffffffffffffffffff1673ffffffffffffffffffffffffffffffffffffffff16815260200190815260200160002060009054906101000a900460ff16151561065157600080fd5b600360009054906101000a900473ffffffffffffffffffffffffffffffffffffffff1693506004856040518082805190602001908083835b6020831015156106ae5780518252602082019150602081019050602083039250610689565b6001836020036101000a03801982511681845116808217855250505050505090500191505090815260200160405180910390205492506106ed85610c41565b15156106f857600080fd5b8373ffffffffffffffffffffffffffffffffffffffff16636352211e846040518263ffffffff167c010000000000000000000000000000000000000000000000000000000002815260040180828152602001915050602060405180830381600087803b15801561076757600080fd5b505af115801561077b573d6000803e3d6000fd5b505050506040513d602081101561079157600080fd5b810190808051906020019092919050505091508373ffffffffffffffffffffffffffffffffffffffff1663c4f06ba9846040518263ffffffff167c010000000000000000000000000000000000000000000000000000000002815260040180828152602001915050602060405180830381600087803b15801561081357600080fd5b505af1158015610827573d6000803e3d6000fd5b505050506040513d602081101561083d57600080fd5b810190808051906020019092919050505090508373ffffffffffffffffffffffffffffffffffffffff1663b8ce670d8385846040518463ffffffff167c0100000000000000000000000000000000000000000000000000000000028152600401808473ffffffffffffffffffffffffffffffffffffffff1673ffffffffffffffffffffffffffffffffffffffff1681526020018381526020018273ffffffffffffffffffffffffffffffffffffffff1673ffffffffffffffffffffffffffffffffffffffff1681526020019350505050600060405180830381600087803b15801561092757600080fd5b505af115801561093b573d6000803e3d6000fd5b50505050827f2f4571f2984ba30ce78aa0f14719b37bbd049f64cb1c0ef77b35423ec6b557d38287604051808373ffffffffffffffffffffffffffffffffffffffff1673ffffffffffffffffffffffffffffffffffffffff16815260200180602001828103825283818151815260200191508051906020019080838360005b838110156109d55780820151818401526020810190506109ba565b50505050905090810190601f168015610a025780820380516001836020036101000a031916815260200191505b50935050505060405180910390a25050505050565b6000809054906101000a900473ffffffffffffffffffffffffffffffffffffffff1673ffffffffffffffffffffffffffffffffffffffff163373ffffffffffffffffffffffffffffffffffffffff16141515610a7257600080fd5b600260008273ffffffffffffffffffffffffffffffffffffffff1673ffffffffffffffffffffffffffffffffffffffff16815260200190815260200160002060006101000a81549060ff021916905550565b6000806000600360009054906101000a900473ffffffffffffffffffffffffffffffffffffffff1691506004846040518082805190602001908083835b602083101515610b265780518252602082019150602081019050602083039250610b01565b6001836020036101000a03801982511681845116808217855250505050505090500191505090815260200160405180910390205490508173ffffffffffffffffffffffffffffffffffffffff16634f558e79826040518263ffffffff167c010000000000000000000000000000000000000000000000000000000002815260040180828152602001915050602060405180830381600087803b158015610bcb57600080fd5b505af1158015610bdf573d6000803e3d6000fd5b505050506040513d6020811015610bf557600080fd5b81019080805190602001909291905050501515610c155760019250610c1a565b600092505b5050919050565b60026020528060005260406000206000915054906101000a900460ff1681565b60008060006004846040518082805190602001908083835b602083101515610c7e5780518252602082019150602081019050602083039250610c59565b6001836020036101000a0380198251168184511680821785525050505050509050019150509081526020016040518091039020549150600360009054906101000a900473ffffffffffffffffffffffffffffffffffffffff1690508073ffffffffffffffffffffffffffffffffffffffff16634f558e79836040518263ffffffff167c010000000000000000000000000000000000000000000000000000000002815260040180828152602001915050602060405180830381600087803b158015610d4857600080fd5b505af1158015610d5c573d6000803e3d6000fd5b505050506040513d6020811015610d7257600080fd5b810190808051906020019092919050505015610d915760019250610d96565b600092505b5050919050565b6000809054906101000a900473ffffffffffffffffffffffffffffffffffffffff1673ffffffffffffffffffffffffffffffffffffffff163373ffffffffffffffffffffffffffffffffffffffff16141515610df857600080fd5b6001600260008373ffffffffffffffffffffffffffffffffffffffff1673ffffffffffffffffffffffffffffffffffffffff16815260200190815260200160002060006101000a81548160ff02191690831515021790555050565b600160009054906101000a900473ffffffffffffffffffffffffffffffffffffffff1673ffffffffffffffffffffffffffffffffffffffff163373ffffffffffffffffffffffffffffffffffffffff16141515610eaf57600080fd5b600160009054906101000a900473ffffffffffffffffffffffffffffffffffffffff1673ffffffffffffffffffffffffffffffffffffffff166000809054906101000a900473ffffffffffffffffffffffffffffffffffffffff1673ffffffffffffffffffffffffffffffffffffffff167f8be0079c531659141344cd1fd0a4f28419497f9722a3daafe3b4186f6b6457e060405160405180910390a3600160009054906101000a900473ffffffffffffffffffffffffffffffffffffffff166000806101000a81548173ffffffffffffffffffffffffffffffffffffffff021916908373ffffffffffffffffffffffffffffffffffffffff1602179055506000600160006101000a81548173ffffffffffffffffffffffffffffffffffffffff021916908373ffffffffffffffffffffffffffffffffffffffff160217905550565b6000809054906101000a900473ffffffffffffffffffffffffffffffffffffffff1681565b600260003373ffffffffffffffffffffffffffffffffffffffff1673ffffffffffffffffffffffffffffffffffffffff16815260200190815260200160002060009054906101000a900460ff16151561106f57600080fd5b61108e8173ffffffffffffffffffffffffffffffffffffffff166117d2565b151561109957600080fd5b80600360006101000a81548173ffffffffffffffffffffffffffffffffffffffff021916908373ffffffffffffffffffffffffffffffffffffffff16021790555050565b600160009054906101000a900473ffffffffffffffffffffffffffffffffffffffff1681565b60006004826040518082805190602001908083835b60208310151561113d5780518252602082019150602081019050602083039250611118565b6001836020036101000a0380198251168184511680821785525050505050509050019150509081526020016040518091039020549050919050565b600080600260003373ffffffffffffffffffffffffffffffffffffffff1673ffffffffffffffffffffffffffffffffffffffff16815260200190815260200160002060009054906101000a900460ff1615156111d357600080fd5b6111dc84610ac4565b15156111e757600080fd5b600360009054906101000a900473ffffffffffffffffffffffffffffffffffffffff1691506112be60018373ffffffffffffffffffffffffffffffffffffffff166318160ddd6040518163ffffffff167c0100000000000000000000000000000000000000000000000000000000028152600401602060405180830381600087803b15801561127557600080fd5b505af1158015611289573d6000803e3d6000fd5b505050506040513d602081101561129f57600080fd5b81019080805190602001909291905050506117e590919063ffffffff16565b90508173ffffffffffffffffffffffffffffffffffffffff16634f558e79826040518263ffffffff167c010000000000000000000000000000000000000000000000000000000002815260040180828152602001915050602060405180830381600087803b15801561132f57600080fd5b505af1158015611343573d6000803e3d6000fd5b505050506040513d602081101561135957600080fd5b810190808051906020019092919050505015156115a1578173ffffffffffffffffffffffffffffffffffffffff16630d4d15133383866040518463ffffffff167c0100000000000000000000000000000000000000000000000000000000028152600401808473ffffffffffffffffffffffffffffffffffffffff1673ffffffffffffffffffffffffffffffffffffffff1681526020018381526020018273ffffffffffffffffffffffffffffffffffffffff1673ffffffffffffffffffffffffffffffffffffffff1681526020019350505050600060405180830381600087803b15801561144757600080fd5b505af115801561145b573d6000803e3d6000fd5b50505050806004856040518082805190602001908083835b6020831015156114985780518252602082019150602081019050602083039250611473565b6001836020036101000a038019825116818451168082178552505050505050905001915050908152602001604051809103902081905550807fa140a429a3b2bc69f79fc3e24b5e990ba2351ff736f150bf414d659b6e7f17548486604051808373ffffffffffffffffffffffffffffffffffffffff1673ffffffffffffffffffffffffffffffffffffffff16815260200180602001828103825283818151815260200191508051906020019080838360005b8381101561156557808201518184015260208101905061154a565b50505050905090810190601f1680156115925780820380516001836020036101000a031916815260200191505b50935050505060405180910390a25b50505050565b6000809054906101000a900473ffffffffffffffffffffffffffffffffffffffff1673ffffffffffffffffffffffffffffffffffffffff163373ffffffffffffffffffffffffffffffffffffffff1614151561160257600080fd5b80600160006101000a81548173ffffffffffffffffffffffffffffffffffffffff021916908373ffffffffffffffffffffffffffffffffffffffff16021790555050565b6000806000600360009054906101000a900473ffffffffffffffffffffffffffffffffffffffff1691506004846040518082805190602001908083835b6020831015156116a85780518252602082019150602081019050602083039250611683565b6001836020036101000a0380198251168184511680821785525050505050509050019150509081526020016040518091039020549050600073ffffffffffffffffffffffffffffffffffffffff168273ffffffffffffffffffffffffffffffffffffffff1663c4f06ba9836040518263ffffffff167c010000000000000000000000000000000000000000000000000000000002815260040180828152602001915050602060405180830381600087803b15801561176557600080fd5b505af1158015611779573d6000803e3d6000fd5b505050506040513d602081101561178f57600080fd5b810190808051906020019092919050505073ffffffffffffffffffffffffffffffffffffffff161415156117c657600192506117cb565b600092505b5050919050565b600080823b905060008111915050919050565b60008082840190508381101515156117fc57600080fd5b80915050929150505600a165627a7a72305820d0cd5df85e86552d24eaf39eb789ffcb89af642a0fd5dc0320f6034171a9db990029",
  "source": "pragma solidity ^0.4.24;\r\n\r\nimport \"./Owned.sol\";\r\nimport \"./AddressUtils.sol\";\r\nimport \"./SafeMath.sol\";\r\n\r\ncontract CopyrightCenterMC is Owned {\r\n    using AddressUtils for address;\r\n    using SafeMath for uint256;\r\n\r\n    address CRaddress; // Copyright用户注册好版权的地方。XBP,代码和BP一样，存储数据不同。\r\n\r\n    mapping(string => uint256) indexOfCRhash;\r\n\r\n    event Shelf(address _maker, uint256 indexed _tokenIdOfCR, string _BPHash);\r\n    event Unshelf(address _maker, uint256 indexed _tokenIdOfCR, string _BPHash);\r\n\r\n    constructor()\r\n        public\r\n    {\r\n        owner = msg.sender;\r\n        admins[msg.sender] = true;\r\n    }\r\n\r\n    function setCRaddress(address _addr)\r\n        public\r\n        onlyAdmins\r\n    {\r\n        require(_addr.isContract());\r\n        CRaddress = _addr;\r\n    }\r\n\r\n    function canShelf(string BPHash)\r\n        public\r\n        view\r\n        returns(bool)\r\n    {\r\n        BP cr = BP(CRaddress);\r\n        uint256 _indexOfCR = indexOfCRhash[BPHash];\r\n\r\n        if(!cr.exists(_indexOfCR)) {\r\n            return true;\r\n        } else {\r\n            return false;\r\n        }\r\n    }\r\n\r\n    function shelf(string BPHash, address _maker)\r\n        public\r\n        onlyAdmins\r\n    {\r\n        require(canShelf(BPHash));\r\n\r\n        BP cr = BP(CRaddress);\r\n\r\n\r\n        // tokenId 不能为0，tokenId不能选择为0的数，否则exist(tokenId)会判定BPhash不存在的为存在。\r\n        uint256 _tokenIdOfCR = cr.totalSupply().add(1);\r\n        \r\n\r\n\r\n        if(!cr.exists(_tokenIdOfCR)) {\r\n            cr.mint(msg.sender, _tokenIdOfCR , _maker);\r\n\r\n            indexOfCRhash[BPHash] = _tokenIdOfCR;\r\n\r\n            emit Shelf(_maker, _tokenIdOfCR, BPHash);\r\n        }\r\n\r\n    }\r\n    \r\n    function canUnshelf(string BPHash)\r\n        public\r\n        view\r\n        returns(bool)\r\n    {\r\n        uint256 _tokenId = indexOfCRhash[BPHash];\r\n        \r\n        BP cr = BP(CRaddress);\r\n\r\n        if(cr.exists(_tokenId)) {\r\n            return true;\r\n        } else {\r\n            return false;\r\n        }\r\n    }\r\n\r\n\r\n    function unshelf(string BPHash)\r\n        public\r\n        onlyAdmins\r\n    {\r\n        BP cr = BP(CRaddress);\r\n        uint256 _tokenIdOfCR = indexOfCRhash[BPHash];\r\n\r\n        require(canUnshelf(BPHash));\r\n        address _owner = cr.ownerOf(_tokenIdOfCR);\r\n        address _maker = cr.makerOf(_tokenIdOfCR);\r\n\r\n        cr.burn(_owner, _tokenIdOfCR, _maker);\r\n\r\n        emit Unshelf(_maker, _tokenIdOfCR, BPHash);\r\n    }\r\n\r\n    function haveShelf(string BPHash)\r\n        public\r\n        view\r\n        returns(bool)\r\n    {\r\n        BP cr = BP(CRaddress);\r\n        uint256 _tokenIdOfCR = indexOfCRhash[BPHash];\r\n        if(cr.makerOf(_tokenIdOfCR) != address(0)) {\r\n            return true;\r\n        } else {\r\n            return false;\r\n        }\r\n    }\r\n\r\n    function getTokenIdOfCR(string BPHash)\r\n        public\r\n        view\r\n        returns(uint256)\r\n    {\r\n        return indexOfCRhash[BPHash];    \r\n    }\r\n\r\n}\r\n\r\ninterface BP {\r\n    function mint(address _to, uint256 _tokenId, address _maker) external;\r\n    function burn(address _owner, uint256 _tokenId, address _maker) external;\r\n    function totalSupply() external view returns (uint256);\r\n    function exists(uint256 _tokenId) external view returns (bool _exists);    \r\n    function makerOf(uint256 _tokenId) external view returns (address);\r\n    function ownerOf(uint256 _tokenId) external view returns (address);\r\n}",
  "sourcePath": "/Users/zhouliqihan/proj/tac/LeblockPlatformJs/contracts/CopyrightCenter_MC.sol",
  "compiler": {
    "name": "solc",
    "version": "0.4.24+commit.e67f0147.Emscripten.clang"
  },
  "schemaVersion": "2.0.1",
  "updatedAt": "2018-09-25T17:30:05.543Z"
}