{
  "contractName": "Gateway_HTLC",
  "abi": [
    {
      "constant": false,
      "inputs": [
        {
          "name": "_admin",
          "type": "address"
        }
      ],
      "name": "removeAdmin",
      "outputs": [],
      "payable": false,
      "stateMutability": "nonpayable",
      "type": "function"
    },
    {
      "constant": false,
      "inputs": [],
      "name": "unpause",
      "outputs": [],
      "payable": false,
      "stateMutability": "nonpayable",
      "type": "function"
    },
    {
      "constant": true,
      "inputs": [
        {
          "name": "",
          "type": "address"
        }
      ],
      "name": "admins",
      "outputs": [
        {
          "name": "",
          "type": "bool"
        }
      ],
      "payable": false,
      "stateMutability": "view",
      "type": "function"
    },
    {
      "constant": true,
      "inputs": [],
      "name": "paused",
      "outputs": [
        {
          "name": "",
          "type": "bool"
        }
      ],
      "payable": false,
      "stateMutability": "view",
      "type": "function"
    },
    {
      "constant": false,
      "inputs": [
        {
          "name": "_admin",
          "type": "address"
        }
      ],
      "name": "addAdmin",
      "outputs": [],
      "payable": false,
      "stateMutability": "nonpayable",
      "type": "function"
    },
    {
      "constant": false,
      "inputs": [],
      "name": "acceptOwnership",
      "outputs": [],
      "payable": false,
      "stateMutability": "nonpayable",
      "type": "function"
    },
    {
      "constant": true,
      "inputs": [],
      "name": "minLockTime2",
      "outputs": [
        {
          "name": "",
          "type": "uint256"
        }
      ],
      "payable": false,
      "stateMutability": "view",
      "type": "function"
    },
    {
      "constant": false,
      "inputs": [],
      "name": "pause",
      "outputs": [],
      "payable": false,
      "stateMutability": "nonpayable",
      "type": "function"
    },
    {
      "constant": true,
      "inputs": [],
      "name": "owner",
      "outputs": [
        {
          "name": "",
          "type": "address"
        }
      ],
      "payable": false,
      "stateMutability": "view",
      "type": "function"
    },
    {
      "constant": true,
      "inputs": [],
      "name": "maxLockTime2",
      "outputs": [
        {
          "name": "",
          "type": "uint256"
        }
      ],
      "payable": false,
      "stateMutability": "view",
      "type": "function"
    },
    {
      "constant": true,
      "inputs": [],
      "name": "minLockTime",
      "outputs": [
        {
          "name": "",
          "type": "uint256"
        }
      ],
      "payable": false,
      "stateMutability": "view",
      "type": "function"
    },
    {
      "constant": true,
      "inputs": [],
      "name": "maxLockTime",
      "outputs": [
        {
          "name": "",
          "type": "uint256"
        }
      ],
      "payable": false,
      "stateMutability": "view",
      "type": "function"
    },
    {
      "constant": true,
      "inputs": [],
      "name": "newOwner",
      "outputs": [
        {
          "name": "",
          "type": "address"
        }
      ],
      "payable": false,
      "stateMutability": "view",
      "type": "function"
    },
    {
      "constant": false,
      "inputs": [
        {
          "name": "_newOwner",
          "type": "address"
        }
      ],
      "name": "transferOwnership",
      "outputs": [],
      "payable": false,
      "stateMutability": "nonpayable",
      "type": "function"
    },
    {
      "inputs": [],
      "payable": false,
      "stateMutability": "nonpayable",
      "type": "constructor"
    },
    {
      "anonymous": false,
      "inputs": [
        {
          "indexed": false,
          "name": "_from",
          "type": "address"
        },
        {
          "indexed": false,
          "name": "_to",
          "type": "address"
        },
        {
          "indexed": true,
          "name": "_amount",
          "type": "uint256"
        },
        {
          "indexed": false,
          "name": "_tokenAddress",
          "type": "address"
        },
        {
          "indexed": false,
          "name": "_hash",
          "type": "bytes32"
        },
        {
          "indexed": false,
          "name": "_lockTime",
          "type": "uint256"
        }
      ],
      "name": "Recharge",
      "type": "event"
    },
    {
      "anonymous": false,
      "inputs": [
        {
          "indexed": false,
          "name": "_from",
          "type": "address"
        },
        {
          "indexed": false,
          "name": "_to",
          "type": "address"
        },
        {
          "indexed": true,
          "name": "_amount",
          "type": "uint256"
        },
        {
          "indexed": false,
          "name": "_tokenAddress",
          "type": "address"
        },
        {
          "indexed": false,
          "name": "_hash",
          "type": "bytes32"
        }
      ],
      "name": "Withdraw",
      "type": "event"
    },
    {
      "anonymous": false,
      "inputs": [
        {
          "indexed": false,
          "name": "_from",
          "type": "address"
        },
        {
          "indexed": true,
          "name": "_amount",
          "type": "uint256"
        },
        {
          "indexed": false,
          "name": "_tokenAddress",
          "type": "address"
        },
        {
          "indexed": false,
          "name": "_hash",
          "type": "bytes32"
        }
      ],
      "name": "BackTo",
      "type": "event"
    },
    {
      "anonymous": false,
      "inputs": [],
      "name": "Pause",
      "type": "event"
    },
    {
      "anonymous": false,
      "inputs": [],
      "name": "Unpause",
      "type": "event"
    },
    {
      "anonymous": false,
      "inputs": [
        {
          "indexed": true,
          "name": "_from",
          "type": "address"
        },
        {
          "indexed": true,
          "name": "_to",
          "type": "address"
        }
      ],
      "name": "OwnershipTransferred",
      "type": "event"
    },
    {
      "constant": false,
      "inputs": [
        {
          "name": "_type",
          "type": "uint256"
        },
        {
          "name": "_time",
          "type": "uint256"
        }
      ],
      "name": "setLockTime",
      "outputs": [],
      "payable": false,
      "stateMutability": "nonpayable",
      "type": "function"
    },
    {
      "constant": false,
      "inputs": [
        {
          "name": "_hash",
          "type": "bytes32"
        },
        {
          "name": "_amount",
          "type": "uint256"
        },
        {
          "name": "_tokenAddr",
          "type": "address"
        },
        {
          "name": "_to",
          "type": "address"
        },
        {
          "name": "_lockTime",
          "type": "uint256"
        }
      ],
      "name": "recharge",
      "outputs": [],
      "payable": false,
      "stateMutability": "nonpayable",
      "type": "function"
    },
    {
      "constant": false,
      "inputs": [
        {
          "name": "_hash",
          "type": "bytes32"
        },
        {
          "name": "_to",
          "type": "address"
        },
        {
          "name": "_lockTime",
          "type": "uint256"
        }
      ],
      "name": "rechargeInCoin",
      "outputs": [],
      "payable": true,
      "stateMutability": "payable",
      "type": "function"
    },
    {
      "constant": false,
      "inputs": [
        {
          "name": "_hash",
          "type": "bytes32"
        },
        {
          "name": "_tokenId",
          "type": "uint256"
        },
        {
          "name": "_tokenAddr",
          "type": "address"
        },
        {
          "name": "_to",
          "type": "address"
        },
        {
          "name": "_lockTime",
          "type": "uint256"
        }
      ],
      "name": "rechargeInNFT",
      "outputs": [],
      "payable": false,
      "stateMutability": "nonpayable",
      "type": "function"
    },
    {
      "constant": false,
      "inputs": [
        {
          "name": "_key",
          "type": "string"
        },
        {
          "name": "_from",
          "type": "address"
        },
        {
          "name": "_index",
          "type": "uint256"
        }
      ],
      "name": "withdrawTo",
      "outputs": [],
      "payable": false,
      "stateMutability": "nonpayable",
      "type": "function"
    },
    {
      "constant": false,
      "inputs": [
        {
          "name": "_key",
          "type": "string"
        },
        {
          "name": "_from",
          "type": "address"
        },
        {
          "name": "_index",
          "type": "uint256"
        }
      ],
      "name": "withdrawToInCoin",
      "outputs": [],
      "payable": false,
      "stateMutability": "nonpayable",
      "type": "function"
    },
    {
      "constant": false,
      "inputs": [
        {
          "name": "_key",
          "type": "string"
        },
        {
          "name": "_from",
          "type": "address"
        },
        {
          "name": "_index",
          "type": "uint256"
        }
      ],
      "name": "withdrawToInNFT",
      "outputs": [],
      "payable": false,
      "stateMutability": "nonpayable",
      "type": "function"
    },
    {
      "constant": false,
      "inputs": [
        {
          "name": "_hash",
          "type": "bytes32"
        },
        {
          "name": "_amount",
          "type": "uint256"
        },
        {
          "name": "_tokenAddr",
          "type": "address"
        },
        {
          "name": "_to",
          "type": "address"
        },
        {
          "name": "_lockTime",
          "type": "uint256"
        }
      ],
      "name": "recharge2",
      "outputs": [],
      "payable": false,
      "stateMutability": "nonpayable",
      "type": "function"
    },
    {
      "constant": false,
      "inputs": [
        {
          "name": "_hash",
          "type": "bytes32"
        },
        {
          "name": "_to",
          "type": "address"
        },
        {
          "name": "_lockTime",
          "type": "uint256"
        }
      ],
      "name": "rechargeInCoin2",
      "outputs": [],
      "payable": true,
      "stateMutability": "payable",
      "type": "function"
    },
    {
      "constant": false,
      "inputs": [
        {
          "name": "_hash",
          "type": "bytes32"
        },
        {
          "name": "_tokenId",
          "type": "uint256"
        },
        {
          "name": "_tokenAddr",
          "type": "address"
        },
        {
          "name": "_to",
          "type": "address"
        },
        {
          "name": "_lockTime",
          "type": "uint256"
        }
      ],
      "name": "rechargeInNFT2",
      "outputs": [],
      "payable": false,
      "stateMutability": "nonpayable",
      "type": "function"
    },
    {
      "constant": false,
      "inputs": [
        {
          "name": "_from",
          "type": "address"
        },
        {
          "name": "_index",
          "type": "uint256"
        }
      ],
      "name": "backTo",
      "outputs": [],
      "payable": false,
      "stateMutability": "nonpayable",
      "type": "function"
    },
    {
      "constant": false,
      "inputs": [
        {
          "name": "_from",
          "type": "address"
        },
        {
          "name": "_index",
          "type": "uint256"
        }
      ],
      "name": "backToInCoin",
      "outputs": [],
      "payable": false,
      "stateMutability": "nonpayable",
      "type": "function"
    },
    {
      "constant": false,
      "inputs": [
        {
          "name": "_from",
          "type": "address"
        },
        {
          "name": "_index",
          "type": "uint256"
        }
      ],
      "name": "backToInNFT",
      "outputs": [],
      "payable": false,
      "stateMutability": "nonpayable",
      "type": "function"
    },
    {
      "constant": true,
      "inputs": [
        {
          "name": "_addr",
          "type": "address"
        },
        {
          "name": "_index",
          "type": "uint256"
        }
      ],
      "name": "blanceOf",
      "outputs": [
        {
          "name": "",
          "type": "uint256"
        }
      ],
      "payable": false,
      "stateMutability": "view",
      "type": "function"
    },
    {
      "constant": true,
      "inputs": [
        {
          "name": "_addr",
          "type": "address"
        },
        {
          "name": "_index",
          "type": "uint256"
        }
      ],
      "name": "getHashOf",
      "outputs": [
        {
          "name": "",
          "type": "bytes32"
        }
      ],
      "payable": false,
      "stateMutability": "view",
      "type": "function"
    },
    {
      "constant": true,
      "inputs": [
        {
          "name": "_addr",
          "type": "address"
        },
        {
          "name": "_index",
          "type": "uint256"
        }
      ],
      "name": "getUnlockTime",
      "outputs": [
        {
          "name": "",
          "type": "uint256"
        }
      ],
      "payable": false,
      "stateMutability": "view",
      "type": "function"
    },
    {
      "constant": true,
      "inputs": [
        {
          "name": "_addr",
          "type": "address"
        },
        {
          "name": "_index",
          "type": "uint256"
        }
      ],
      "name": "getToAddr",
      "outputs": [
        {
          "name": "",
          "type": "address"
        }
      ],
      "payable": false,
      "stateMutability": "view",
      "type": "function"
    },
    {
      "constant": true,
      "inputs": [
        {
          "name": "_addr",
          "type": "address"
        },
        {
          "name": "_index",
          "type": "uint256"
        }
      ],
      "name": "getTokenAddr",
      "outputs": [
        {
          "name": "",
          "type": "address"
        }
      ],
      "payable": false,
      "stateMutability": "view",
      "type": "function"
    }
  ],
  "bytecode": "0x60806040526000600360006101000a81548160ff0219169083151502179055506202a3006004556206978060055561a8c06006556201518060075534801561004657600080fd5b50336000806101000a81548173ffffffffffffffffffffffffffffffffffffffff021916908373ffffffffffffffffffffffffffffffffffffffff1602179055506001600260003373ffffffffffffffffffffffffffffffffffffffff1673ffffffffffffffffffffffffffffffffffffffff16815260200190815260200160002060006101000a81548160ff021916908315150217905550615a3980620000ef6000396000f300608060405260043610610196576000357c0100000000000000000000000000000000000000000000000000000000900463ffffffff1680631785f53c1461019b578063262323b0146101de5780632a15aafd146102715780633b0e8752146102da5780633f4ba83a1461036d578063429b62e514610384578063508f1be9146103df5780635c975abb1461042d578063689bd6651461045c57806370480275146104e1578063767cf4e51461052457806379ba5097146105715780638211c03d14610588578063822d2f9b1461060d5780638456cb591461063857806387eb31f41461064f5780638da5cb5b14610686578063905dc937146106dd5780639218e9a81461073e57806394beccac146107cb5780639c90ea71146107f6578063a60ff7661461087b578063b4227979146108a6578063c2b748d8146108f3578063d308e10e14610980578063d4ee1d90146109ab578063dd7351a114610a02578063ec531d9214610a50578063f183af0314610ab1578063f2fde38b14610afe578063f8b4453214610b41578063f907ad4f14610bc6575b600080fd5b3480156101a757600080fd5b506101dc600480360381019080803573ffffffffffffffffffffffffffffffffffffffff169060200190929190505050610c59565b005b3480156101ea57600080fd5b5061026f600480360381019080803590602001908201803590602001908080601f0160208091040260200160405190810160405280939291908181526020018383808284378201915050505050509192919290803573ffffffffffffffffffffffffffffffffffffffff16906020019092919080359060200190929190505050610d06565b005b34801561027d57600080fd5b506102bc600480360381019080803573ffffffffffffffffffffffffffffffffffffffff16906020019092919080359060200190929190505050611200565b60405180826000191660001916815260200191505060405180910390f35b3480156102e657600080fd5b5061036b600480360381019080803590602001908201803590602001908080601f0160208091040260200160405190810160405280939291908181526020018383808284378201915050505050509192919290803573ffffffffffffffffffffffffffffffffffffffff1690602001909291908035906020019092919050505061133d565b005b34801561037957600080fd5b50610382611ae7565b005b34801561039057600080fd5b506103c5600480360381019080803573ffffffffffffffffffffffffffffffffffffffff169060200190929190505050611ba3565b604051808215151515815260200191505060405180910390f35b61042b6004803603810190808035600019169060200190929190803573ffffffffffffffffffffffffffffffffffffffff16906020019092919080359060200190929190505050611bc3565b005b34801561043957600080fd5b50610442611eb9565b604051808215151515815260200191505060405180910390f35b34801561046857600080fd5b506104df600480360381019080803560001916906020019092919080359060200190929190803573ffffffffffffffffffffffffffffffffffffffff169060200190929190803573ffffffffffffffffffffffffffffffffffffffff16906020019092919080359060200190929190505050611ecc565b005b3480156104ed57600080fd5b50610522600480360381019080803573ffffffffffffffffffffffffffffffffffffffff16906020019092919050505061235a565b005b34801561053057600080fd5b5061056f600480360381019080803573ffffffffffffffffffffffffffffffffffffffff16906020019092919080359060200190929190505050612410565b005b34801561057d57600080fd5b50610586612922565b005b34801561059457600080fd5b5061060b600480360381019080803560001916906020019092919080359060200190929190803573ffffffffffffffffffffffffffffffffffffffff169060200190929190803573ffffffffffffffffffffffffffffffffffffffff16906020019092919080359060200190929190505050612ac1565b005b34801561061957600080fd5b50610622612f4f565b6040518082815260200191505060405180910390f35b34801561064457600080fd5b5061064d612f55565b005b34801561065b57600080fd5b506106846004803603810190808035906020019092919080359060200190929190505050613012565b005b34801561069257600080fd5b5061069b6130ca565b604051808273ffffffffffffffffffffffffffffffffffffffff1673ffffffffffffffffffffffffffffffffffffffff16815260200191505060405180910390f35b3480156106e957600080fd5b50610728600480360381019080803573ffffffffffffffffffffffffffffffffffffffff169060200190929190803590602001909291905050506130ef565b6040518082815260200191505060405180910390f35b34801561074a57600080fd5b50610789600480360381019080803573ffffffffffffffffffffffffffffffffffffffff1690602001909291908035906020019092919050505061322c565b604051808273ffffffffffffffffffffffffffffffffffffffff1673ffffffffffffffffffffffffffffffffffffffff16815260200191505060405180910390f35b3480156107d757600080fd5b506107e0613389565b6040518082815260200191505060405180910390f35b34801561080257600080fd5b50610879600480360381019080803560001916906020019092919080359060200190929190803573ffffffffffffffffffffffffffffffffffffffff169060200190929190803573ffffffffffffffffffffffffffffffffffffffff1690602001909291908035906020019092919050505061338f565b005b34801561088757600080fd5b50610890613862565b6040518082815260200191505060405180910390f35b3480156108b257600080fd5b506108f1600480360381019080803573ffffffffffffffffffffffffffffffffffffffff16906020019092919080359060200190929190505050613868565b005b3480156108ff57600080fd5b5061093e600480360381019080803573ffffffffffffffffffffffffffffffffffffffff16906020019092919080359060200190929190505050613e89565b604051808273ffffffffffffffffffffffffffffffffffffffff1673ffffffffffffffffffffffffffffffffffffffff16815260200191505060405180910390f35b34801561098c57600080fd5b50610995613fe6565b6040518082815260200191505060405180910390f35b3480156109b757600080fd5b506109c0613fec565b604051808273ffffffffffffffffffffffffffffffffffffffff1673ffffffffffffffffffffffffffffffffffffffff16815260200191505060405180910390f35b610a4e6004803603810190808035600019169060200190929190803573ffffffffffffffffffffffffffffffffffffffff16906020019092919080359060200190929190505050614012565b005b348015610a5c57600080fd5b50610a9b600480360381019080803573ffffffffffffffffffffffffffffffffffffffff16906020019092919080359060200190929190505050614308565b6040518082815260200191505060405180910390f35b348015610abd57600080fd5b50610afc600480360381019080803573ffffffffffffffffffffffffffffffffffffffff1690602001909291908035906020019092919050505061446e565b005b348015610b0a57600080fd5b50610b3f600480360381019080803573ffffffffffffffffffffffffffffffffffffffff169060200190929190505050614a9a565b005b348015610b4d57600080fd5b50610bc4600480360381019080803560001916906020019092919080359060200190929190803573ffffffffffffffffffffffffffffffffffffffff169060200190929190803573ffffffffffffffffffffffffffffffffffffffff16906020019092919080359060200190929190505050614b39565b005b348015610bd257600080fd5b50610c57600480360381019080803590602001908201803590602001908080601f0160208091040260200160405190810160405280939291908181526020018383808284378201915050505050509192919290803573ffffffffffffffffffffffffffffffffffffffff1690602001909291908035906020019092919050505061500c565b005b6000809054906101000a900473ffffffffffffffffffffffffffffffffffffffff1673ffffffffffffffffffffffffffffffffffffffff163373ffffffffffffffffffffffffffffffffffffffff16141515610cb457600080fd5b600260008273ffffffffffffffffffffffffffffffffffffffff1673ffffffffffffffffffffffffffffffffffffffff16815260200190815260200160002060006101000a81549060ff021916905550565b6000836040516020018082805190602001908083835b602083101515610d415780518252602082019150602081019050602083039250610d1c565b6001836020036101000a0380198251168184511680821785525050505050509050019150506040516020818303038152906040526040518082805190602001908083835b602083101515610daa5780518252602082019150602081019050602083039250610d85565b6001836020036101000a0380198251168184511680821785525050505050509050019150506040518091039020905080600860008573ffffffffffffffffffffffffffffffffffffffff1673ffffffffffffffffffffffffffffffffffffffff16815260200190815260200160002083815481101515610e2657fe5b90600052602060002090600602016003018160001916905550600860008473ffffffffffffffffffffffffffffffffffffffff1673ffffffffffffffffffffffffffffffffffffffff16815260200190815260200160002082815481101515610e8b57fe5b906000526020600020906006020160050160009054906101000a900473ffffffffffffffffffffffffffffffffffffffff1673ffffffffffffffffffffffffffffffffffffffff166108fc600860008673ffffffffffffffffffffffffffffffffffffffff1673ffffffffffffffffffffffffffffffffffffffff16815260200190815260200160002084815481101515610f2257fe5b9060005260206000209060060201600201549081150290604051600060405180830381858888f19350505050158015610f5f573d6000803e3d6000fd5b50610f6a838361562b565b600860008473ffffffffffffffffffffffffffffffffffffffff1673ffffffffffffffffffffffffffffffffffffffff16815260200190815260200160002082815481101515610fb657fe5b9060005260206000209060060201600201547f68e813c93814923933c25a9a75d08e1c5067016031bcf913824946294a95d91f84600860008773ffffffffffffffffffffffffffffffffffffffff1673ffffffffffffffffffffffffffffffffffffffff1681526020019081526020016000208581548110151561103657fe5b906000526020600020906006020160050160009054906101000a900473ffffffffffffffffffffffffffffffffffffffff16600860008873ffffffffffffffffffffffffffffffffffffffff1673ffffffffffffffffffffffffffffffffffffffff168152602001908152602001600020868154811015156110b457fe5b906000526020600020906006020160040160009054906101000a900473ffffffffffffffffffffffffffffffffffffffff16600860008973ffffffffffffffffffffffffffffffffffffffff1673ffffffffffffffffffffffffffffffffffffffff1681526020019081526020016000208781548110151561113257fe5b906000526020600020906006020160030154604051808573ffffffffffffffffffffffffffffffffffffffff1673ffffffffffffffffffffffffffffffffffffffff1681526020018473ffffffffffffffffffffffffffffffffffffffff1673ffffffffffffffffffffffffffffffffffffffff1681526020018373ffffffffffffffffffffffffffffffffffffffff1673ffffffffffffffffffffffffffffffffffffffff168152602001826000191660001916815260200194505050505060405180910390a250505050565b600080600860008573ffffffffffffffffffffffffffffffffffffffff1673ffffffffffffffffffffffffffffffffffffffff1681526020019081526020016000208381548110151561124f57fe5b906000526020600020906006020160000154141515156112d7576040517f08c379a000000000000000000000000000000000000000000000000000000000815260040180806020018281038252600b8152602001807f6e6f7420696e697469616c00000000000000000000000000000000000000000081525060200191505060405180910390fd5b600860008473ffffffffffffffffffffffffffffffffffffffff1673ffffffffffffffffffffffffffffffffffffffff1681526020019081526020016000208281548110151561132357fe5b906000526020600020906006020160030154905092915050565b600080600080866040516020018082805190602001908083835b60208310151561137c5780518252602082019150602081019050602083039250611357565b6001836020036101000a0380198251168184511680821785525050505050509050019150506040516020818303038152906040526040518082805190602001908083835b6020831015156113e557805182526020820191506020810190506020830392506113c0565b6001836020036101000a03801982511681845116808217855250505050505090500191505060405180910390209350600860008773ffffffffffffffffffffffffffffffffffffffff1673ffffffffffffffffffffffffffffffffffffffff1681526020019081526020016000208581548110151561146057fe5b906000526020600020906006020160040160009054906101000a900473ffffffffffffffffffffffffffffffffffffffff169250600860008773ffffffffffffffffffffffffffffffffffffffff1673ffffffffffffffffffffffffffffffffffffffff168152602001908152602001600020858154811015156114e057fe5b906000526020600020906006020160030154600019168460001916141515611570576040517f08c379a00000000000000000000000000000000000000000000000000000000081526004018080602001828103825260098152602001807f6b6579206572726f72000000000000000000000000000000000000000000000081525060200191505060405180910390fd5b61158f8373ffffffffffffffffffffffffffffffffffffffff16615952565b1515611603576040517f08c379a00000000000000000000000000000000000000000000000000000000081526004018080602001828103825260138152602001807f6572726f7220746f6b656e20616464726573730000000000000000000000000081525060200191505060405180910390fd5b600860008773ffffffffffffffffffffffffffffffffffffffff1673ffffffffffffffffffffffffffffffffffffffff1681526020019081526020016000208581548110151561164f57fe5b906000526020600020906006020160040160009054906101000a900473ffffffffffffffffffffffffffffffffffffffff1691508190508073ffffffffffffffffffffffffffffffffffffffff1663a9059cbb600860008973ffffffffffffffffffffffffffffffffffffffff1673ffffffffffffffffffffffffffffffffffffffff168152602001908152602001600020878154811015156116ee57fe5b906000526020600020906006020160050160009054906101000a900473ffffffffffffffffffffffffffffffffffffffff16600860008a73ffffffffffffffffffffffffffffffffffffffff1673ffffffffffffffffffffffffffffffffffffffff1681526020019081526020016000208881548110151561176c57fe5b9060005260206000209060060201600201546040518363ffffffff167c0100000000000000000000000000000000000000000000000000000000028152600401808373ffffffffffffffffffffffffffffffffffffffff1673ffffffffffffffffffffffffffffffffffffffff16815260200182815260200192505050602060405180830381600087803b15801561180357600080fd5b505af1158015611817573d6000803e3d6000fd5b505050506040513d602081101561182d57600080fd5b810190808051906020019092919050505015611ade5761184d868661562b565b600860008773ffffffffffffffffffffffffffffffffffffffff1673ffffffffffffffffffffffffffffffffffffffff1681526020019081526020016000208581548110151561189957fe5b9060005260206000209060060201600201547f68e813c93814923933c25a9a75d08e1c5067016031bcf913824946294a95d91f87600860008a73ffffffffffffffffffffffffffffffffffffffff1673ffffffffffffffffffffffffffffffffffffffff1681526020019081526020016000208881548110151561191957fe5b906000526020600020906006020160050160009054906101000a900473ffffffffffffffffffffffffffffffffffffffff16600860008b73ffffffffffffffffffffffffffffffffffffffff1673ffffffffffffffffffffffffffffffffffffffff1681526020019081526020016000208981548110151561199757fe5b906000526020600020906006020160040160009054906101000a900473ffffffffffffffffffffffffffffffffffffffff16600860008c73ffffffffffffffffffffffffffffffffffffffff1673ffffffffffffffffffffffffffffffffffffffff1681526020019081526020016000208a815481101515611a1557fe5b906000526020600020906006020160030154604051808573ffffffffffffffffffffffffffffffffffffffff1673ffffffffffffffffffffffffffffffffffffffff1681526020018473ffffffffffffffffffffffffffffffffffffffff1673ffffffffffffffffffffffffffffffffffffffff1681526020018373ffffffffffffffffffffffffffffffffffffffff1673ffffffffffffffffffffffffffffffffffffffff168152602001826000191660001916815260200194505050505060405180910390a25b50505050505050565b600260003373ffffffffffffffffffffffffffffffffffffffff1673ffffffffffffffffffffffffffffffffffffffff16815260200190815260200160002060009054906101000a900460ff161515611b3f57600080fd5b600360009054906101000a900460ff161515611b5a57600080fd5b6000600360006101000a81548160ff0219169083151502179055507f7805862f689e2f13df9f062ff482ad3ad112aca9e0847911ed832e158c525b3360405160405180910390a1565b60026020528060005260406000206000915054906101000a900460ff1681565b6000611bcd6159a7565b6004548310158015611be157506005548311155b1515611c55576040517f08c379a000000000000000000000000000000000000000000000000000000000815260040180806020018281038252600e8152602001807f6572726f72206c6f636b54696d6500000000000000000000000000000000000081525060200191505060405180910390fd5b34915060c06040519081016040528042815260200184815260200183815260200186600019168152602001600173ffffffffffffffffffffffffffffffffffffffff1681526020018573ffffffffffffffffffffffffffffffffffffffff168152509050600860003373ffffffffffffffffffffffffffffffffffffffff1673ffffffffffffffffffffffffffffffffffffffff16815260200190815260200160002081908060018154018082558091505090600182039060005260206000209060060201600090919290919091506000820151816000015560208201518160010155604082015181600201556060820151816003019060001916905560808201518160040160006101000a81548173ffffffffffffffffffffffffffffffffffffffff021916908373ffffffffffffffffffffffffffffffffffffffff16021790555060a08201518160050160006101000a81548173ffffffffffffffffffffffffffffffffffffffff021916908373ffffffffffffffffffffffffffffffffffffffff160217905550505050817f98b44e5e9264e0a53d90b9b487ffb7db9540762c702713626c4c3df90ae9a0dc338660008988604051808673ffffffffffffffffffffffffffffffffffffffff1673ffffffffffffffffffffffffffffffffffffffff1681526020018573ffffffffffffffffffffffffffffffffffffffff1673ffffffffffffffffffffffffffffffffffffffff1681526020018473ffffffffffffffffffffffffffffffffffffffff16815260200183600019166000191681526020018281526020019550505050505060405180910390a25050505050565b600360009054906101000a900460ff1681565b6000611ed66159a7565b611ef58573ffffffffffffffffffffffffffffffffffffffff16615952565b1515611f69576040517f08c379a00000000000000000000000000000000000000000000000000000000081526004018080602001828103825260138152602001807f6572726f7220746f6b656e20616464726573730000000000000000000000000081525060200191505060405180910390fd5b6004548310158015611f7d57506005548311155b1515611ff1576040517f08c379a000000000000000000000000000000000000000000000000000000000815260040180806020018281038252600e8152602001807f6572726f72206c6f636b54696d6500000000000000000000000000000000000081525060200191505060405180910390fd5b8491508173ffffffffffffffffffffffffffffffffffffffff166323b872dd3330896040518463ffffffff167c0100000000000000000000000000000000000000000000000000000000028152600401808473ffffffffffffffffffffffffffffffffffffffff1673ffffffffffffffffffffffffffffffffffffffff1681526020018373ffffffffffffffffffffffffffffffffffffffff1673ffffffffffffffffffffffffffffffffffffffff1681526020018281526020019350505050600060405180830381600087803b1580156120cb57600080fd5b505af11580156120df573d6000803e3d6000fd5b5050505060c060405190810160405280428152602001848152602001878152602001886000191681526020018673ffffffffffffffffffffffffffffffffffffffff1681526020018573ffffffffffffffffffffffffffffffffffffffff168152509050600860003373ffffffffffffffffffffffffffffffffffffffff1673ffffffffffffffffffffffffffffffffffffffff16815260200190815260200160002081908060018154018082558091505090600182039060005260206000209060060201600090919290919091506000820151816000015560208201518160010155604082015181600201556060820151816003019060001916905560808201518160040160006101000a81548173ffffffffffffffffffffffffffffffffffffffff021916908373ffffffffffffffffffffffffffffffffffffffff16021790555060a08201518160050160006101000a81548173ffffffffffffffffffffffffffffffffffffffff021916908373ffffffffffffffffffffffffffffffffffffffff160217905550505050857f98b44e5e9264e0a53d90b9b487ffb7db9540762c702713626c4c3df90ae9a0dc3386888b88604051808673ffffffffffffffffffffffffffffffffffffffff1673ffffffffffffffffffffffffffffffffffffffff1681526020018573ffffffffffffffffffffffffffffffffffffffff1673ffffffffffffffffffffffffffffffffffffffff1681526020018473ffffffffffffffffffffffffffffffffffffffff1673ffffffffffffffffffffffffffffffffffffffff16815260200183600019166000191681526020018281526020019550505050505060405180910390a250505050505050565b6000809054906101000a900473ffffffffffffffffffffffffffffffffffffffff1673ffffffffffffffffffffffffffffffffffffffff163373ffffffffffffffffffffffffffffffffffffffff161415156123b557600080fd5b6001600260008373ffffffffffffffffffffffffffffffffffffffff1673ffffffffffffffffffffffffffffffffffffffff16815260200190815260200160002060006101000a81548160ff02191690831515021790555050565b600360009054906101000a900460ff1615151561242c57600080fd5b426124fa600860008573ffffffffffffffffffffffffffffffffffffffff1673ffffffffffffffffffffffffffffffffffffffff1681526020019081526020016000208381548110151561247c57fe5b906000526020600020906006020160010154600860008673ffffffffffffffffffffffffffffffffffffffff1673ffffffffffffffffffffffffffffffffffffffff168152602001908152602001600020848154811015156124da57fe5b90600052602060002090600602016000015461596590919063ffffffff16565b10151515612570576040517f08c379a00000000000000000000000000000000000000000000000000000000081526004018080602001828103825260068152602001807f6c6f636b6564000000000000000000000000000000000000000000000000000081525060200191505060405180910390fd5b600173ffffffffffffffffffffffffffffffffffffffff16600860008473ffffffffffffffffffffffffffffffffffffffff1673ffffffffffffffffffffffffffffffffffffffff168152602001908152602001600020828154811015156125d457fe5b906000526020600020906006020160040160009054906101000a900473ffffffffffffffffffffffffffffffffffffffff1673ffffffffffffffffffffffffffffffffffffffff16141515612691576040517f08c379a00000000000000000000000000000000000000000000000000000000081526004018080602001828103825260138152602001807f6572726f7220746f6b656e20616464726573730000000000000000000000000081525060200191505060405180910390fd5b8173ffffffffffffffffffffffffffffffffffffffff166108fc600860008573ffffffffffffffffffffffffffffffffffffffff1673ffffffffffffffffffffffffffffffffffffffff168152602001908152602001600020838154811015156126f757fe5b9060005260206000209060060201600201549081150290604051600060405180830381858888f19350505050158015612734573d6000803e3d6000fd5b5061273f828261562b565b600860008373ffffffffffffffffffffffffffffffffffffffff1673ffffffffffffffffffffffffffffffffffffffff1681526020019081526020016000208181548110151561278b57fe5b9060005260206000209060060201600201547f72c0537c2d7d56e35107e50e9f5bba05c2906acc21290861f1bf8ea8d9693a3883600860008673ffffffffffffffffffffffffffffffffffffffff1673ffffffffffffffffffffffffffffffffffffffff1681526020019081526020016000208481548110151561280b57fe5b906000526020600020906006020160040160009054906101000a900473ffffffffffffffffffffffffffffffffffffffff16600860008773ffffffffffffffffffffffffffffffffffffffff1673ffffffffffffffffffffffffffffffffffffffff1681526020019081526020016000208581548110151561288957fe5b906000526020600020906006020160030154604051808473ffffffffffffffffffffffffffffffffffffffff1673ffffffffffffffffffffffffffffffffffffffff1681526020018373ffffffffffffffffffffffffffffffffffffffff1673ffffffffffffffffffffffffffffffffffffffff1681526020018260001916600019168152602001935050505060405180910390a25050565b600160009054906101000a900473ffffffffffffffffffffffffffffffffffffffff1673ffffffffffffffffffffffffffffffffffffffff163373ffffffffffffffffffffffffffffffffffffffff1614151561297e57600080fd5b600160009054906101000a900473ffffffffffffffffffffffffffffffffffffffff1673ffffffffffffffffffffffffffffffffffffffff166000809054906101000a900473ffffffffffffffffffffffffffffffffffffffff1673ffffffffffffffffffffffffffffffffffffffff167f8be0079c531659141344cd1fd0a4f28419497f9722a3daafe3b4186f6b6457e060405160405180910390a3600160009054906101000a900473ffffffffffffffffffffffffffffffffffffffff166000806101000a81548173ffffffffffffffffffffffffffffffffffffffff021916908373ffffffffffffffffffffffffffffffffffffffff1602179055506000600160006101000a81548173ffffffffffffffffffffffffffffffffffffffff021916908373ffffffffffffffffffffffffffffffffffffffff160217905550565b6000612acb6159a7565b612aea8573ffffffffffffffffffffffffffffffffffffffff16615952565b1515612b5e576040517f08c379a00000000000000000000000000000000000000000000000000000000081526004018080602001828103825260138152602001807f6572726f7220746f6b656e20616464726573730000000000000000000000000081525060200191505060405180910390fd5b6006548310158015612b7257506007548311155b1515612be6576040517f08c379a000000000000000000000000000000000000000000000000000000000815260040180806020018281038252600e8152602001807f6572726f72206c6f636b54696d6500000000000000000000000000000000000081525060200191505060405180910390fd5b8491508173ffffffffffffffffffffffffffffffffffffffff166323b872dd3330896040518463ffffffff167c0100000000000000000000000000000000000000000000000000000000028152600401808473ffffffffffffffffffffffffffffffffffffffff1673ffffffffffffffffffffffffffffffffffffffff1681526020018373ffffffffffffffffffffffffffffffffffffffff1673ffffffffffffffffffffffffffffffffffffffff1681526020018281526020019350505050600060405180830381600087803b158015612cc057600080fd5b505af1158015612cd4573d6000803e3d6000fd5b5050505060c060405190810160405280428152602001848152602001878152602001886000191681526020018673ffffffffffffffffffffffffffffffffffffffff1681526020018573ffffffffffffffffffffffffffffffffffffffff168152509050600860003373ffffffffffffffffffffffffffffffffffffffff1673ffffffffffffffffffffffffffffffffffffffff16815260200190815260200160002081908060018154018082558091505090600182039060005260206000209060060201600090919290919091506000820151816000015560208201518160010155604082015181600201556060820151816003019060001916905560808201518160040160006101000a81548173ffffffffffffffffffffffffffffffffffffffff021916908373ffffffffffffffffffffffffffffffffffffffff16021790555060a08201518160050160006101000a81548173ffffffffffffffffffffffffffffffffffffffff021916908373ffffffffffffffffffffffffffffffffffffffff160217905550505050857f98b44e5e9264e0a53d90b9b487ffb7db9540762c702713626c4c3df90ae9a0dc3386888b88604051808673ffffffffffffffffffffffffffffffffffffffff1673ffffffffffffffffffffffffffffffffffffffff1681526020018573ffffffffffffffffffffffffffffffffffffffff1673ffffffffffffffffffffffffffffffffffffffff1681526020018473ffffffffffffffffffffffffffffffffffffffff1673ffffffffffffffffffffffffffffffffffffffff16815260200183600019166000191681526020018281526020019550505050505060405180910390a250505050505050565b60065481565b600260003373ffffffffffffffffffffffffffffffffffffffff1673ffffffffffffffffffffffffffffffffffffffff16815260200190815260200160002060009054906101000a900460ff161515612fad57600080fd5b600360009054906101000a900460ff16151515612fc957600080fd5b6001600360006101000a81548160ff0219169083151502179055507f6985a02210a168e66602d3235cb6db0e70f92b3ba4d376a33c0f3d9434bff62560405160405180910390a1565b600260003373ffffffffffffffffffffffffffffffffffffffff1673ffffffffffffffffffffffffffffffffffffffff16815260200190815260200160002060009054906101000a900460ff16151561306a57600080fd5b600182141561307f57806004819055506130c6565b600282141561309457806005819055506130c5565b60038214156130a957806006819055506130c4565b60048214156130be57806007819055506130c3565b600080fd5b5b5b5b5050565b6000809054906101000a900473ffffffffffffffffffffffffffffffffffffffff1681565b600080600860008573ffffffffffffffffffffffffffffffffffffffff1673ffffffffffffffffffffffffffffffffffffffff1681526020019081526020016000208381548110151561313e57fe5b906000526020600020906006020160000154141515156131c6576040517f08c379a000000000000000000000000000000000000000000000000000000000815260040180806020018281038252600b8152602001807f6e6f7420696e697469616c00000000000000000000000000000000000000000081525060200191505060405180910390fd5b600860008473ffffffffffffffffffffffffffffffffffffffff1673ffffffffffffffffffffffffffffffffffffffff1681526020019081526020016000208281548110151561321257fe5b906000526020600020906006020160020154905092915050565b600080600860008573ffffffffffffffffffffffffffffffffffffffff1673ffffffffffffffffffffffffffffffffffffffff1681526020019081526020016000208381548110151561327b57fe5b90600052602060002090600602016000015414151515613303576040517f08c379a000000000000000000000000000000000000000000000000000000000815260040180806020018281038252600b8152602001807f6e6f7420696e697469616c00000000000000000000000000000000000000000081525060200191505060405180910390fd5b600860008473ffffffffffffffffffffffffffffffffffffffff1673ffffffffffffffffffffffffffffffffffffffff1681526020019081526020016000208281548110151561334f57fe5b906000526020600020906006020160040160009054906101000a900473ffffffffffffffffffffffffffffffffffffffff16905092915050565b60075481565b60006133996159a7565b600360009054906101000a900460ff161515156133b557600080fd5b6133d48573ffffffffffffffffffffffffffffffffffffffff16615952565b1515613448576040517f08c379a00000000000000000000000000000000000000000000000000000000081526004018080602001828103825260138152602001807f6572726f7220746f6b656e20616464726573730000000000000000000000000081525060200191505060405180910390fd5b600654831015801561345c57506007548311155b15156134d0576040517f08c379a000000000000000000000000000000000000000000000000000000000815260040180806020018281038252600e8152602001807f6572726f72206c6f636b54696d6500000000000000000000000000000000000081525060200191505060405180910390fd5b8491508173ffffffffffffffffffffffffffffffffffffffff166323b872dd3330896040518463ffffffff167c0100000000000000000000000000000000000000000000000000000000028152600401808473ffffffffffffffffffffffffffffffffffffffff1673ffffffffffffffffffffffffffffffffffffffff1681526020018373ffffffffffffffffffffffffffffffffffffffff1673ffffffffffffffffffffffffffffffffffffffff1681526020018281526020019350505050602060405180830381600087803b1580156135aa57600080fd5b505af11580156135be573d6000803e3d6000fd5b505050506040513d60208110156135d457600080fd5b8101908080519060200190929190505050156137755760c060405190810160405280428152602001848152602001878152602001886000191681526020018673ffffffffffffffffffffffffffffffffffffffff1681526020018573ffffffffffffffffffffffffffffffffffffffff168152509050600860003373ffffffffffffffffffffffffffffffffffffffff1673ffffffffffffffffffffffffffffffffffffffff16815260200190815260200160002081908060018154018082558091505090600182039060005260206000209060060201600090919290919091506000820151816000015560208201518160010155604082015181600201556060820151816003019060001916905560808201518160040160006101000a81548173ffffffffffffffffffffffffffffffffffffffff021916908373ffffffffffffffffffffffffffffffffffffffff16021790555060a08201518160050160006101000a81548173ffffffffffffffffffffffffffffffffffffffff021916908373ffffffffffffffffffffffffffffffffffffffff1602179055505050505b857f98b44e5e9264e0a53d90b9b487ffb7db9540762c702713626c4c3df90ae9a0dc3386888b88604051808673ffffffffffffffffffffffffffffffffffffffff1673ffffffffffffffffffffffffffffffffffffffff1681526020018573ffffffffffffffffffffffffffffffffffffffff1673ffffffffffffffffffffffffffffffffffffffff1681526020018473ffffffffffffffffffffffffffffffffffffffff1673ffffffffffffffffffffffffffffffffffffffff16815260200183600019166000191681526020018281526020019550505050505060405180910390a250505050505050565b60045481565b6000600360009054906101000a900460ff1615151561388657600080fd5b42613954600860008673ffffffffffffffffffffffffffffffffffffffff1673ffffffffffffffffffffffffffffffffffffffff168152602001908152602001600020848154811015156138d657fe5b906000526020600020906006020160010154600860008773ffffffffffffffffffffffffffffffffffffffff1673ffffffffffffffffffffffffffffffffffffffff1681526020019081526020016000208581548110151561393457fe5b90600052602060002090600602016000015461596590919063ffffffff16565b101515156139ca576040517f08c379a00000000000000000000000000000000000000000000000000000000081526004018080602001828103825260068152602001807f6c6f636b6564000000000000000000000000000000000000000000000000000081525060200191505060405180910390fd5b613a66600860008573ffffffffffffffffffffffffffffffffffffffff1673ffffffffffffffffffffffffffffffffffffffff16815260200190815260200160002083815481101515613a1957fe5b906000526020600020906006020160040160009054906101000a900473ffffffffffffffffffffffffffffffffffffffff1673ffffffffffffffffffffffffffffffffffffffff16615952565b1515613ada576040517f08c379a00000000000000000000000000000000000000000000000000000000081526004018080602001828103825260138152602001807f6572726f7220746f6b656e20616464726573730000000000000000000000000081525060200191505060405180910390fd5b600860008473ffffffffffffffffffffffffffffffffffffffff1673ffffffffffffffffffffffffffffffffffffffff16815260200190815260200160002082815481101515613b2657fe5b906000526020600020906006020160040160009054906101000a900473ffffffffffffffffffffffffffffffffffffffff1690508073ffffffffffffffffffffffffffffffffffffffff1663a9059cbb84600860008773ffffffffffffffffffffffffffffffffffffffff1673ffffffffffffffffffffffffffffffffffffffff16815260200190815260200160002085815481101515613bc357fe5b9060005260206000209060060201600201546040518363ffffffff167c0100000000000000000000000000000000000000000000000000000000028152600401808373ffffffffffffffffffffffffffffffffffffffff1673ffffffffffffffffffffffffffffffffffffffff16815260200182815260200192505050602060405180830381600087803b158015613c5a57600080fd5b505af1158015613c6e573d6000803e3d6000fd5b505050506040513d6020811015613c8457600080fd5b810190808051906020019092919050505015613e8457613ca4838361562b565b600860008473ffffffffffffffffffffffffffffffffffffffff1673ffffffffffffffffffffffffffffffffffffffff16815260200190815260200160002082815481101515613cf057fe5b9060005260206000209060060201600201547f72c0537c2d7d56e35107e50e9f5bba05c2906acc21290861f1bf8ea8d9693a3884600860008773ffffffffffffffffffffffffffffffffffffffff1673ffffffffffffffffffffffffffffffffffffffff16815260200190815260200160002085815481101515613d7057fe5b906000526020600020906006020160040160009054906101000a900473ffffffffffffffffffffffffffffffffffffffff16600860008873ffffffffffffffffffffffffffffffffffffffff1673ffffffffffffffffffffffffffffffffffffffff16815260200190815260200160002086815481101515613dee57fe5b906000526020600020906006020160030154604051808473ffffffffffffffffffffffffffffffffffffffff1673ffffffffffffffffffffffffffffffffffffffff1681526020018373ffffffffffffffffffffffffffffffffffffffff1673ffffffffffffffffffffffffffffffffffffffff1681526020018260001916600019168152602001935050505060405180910390a25b505050565b600080600860008573ffffffffffffffffffffffffffffffffffffffff1673ffffffffffffffffffffffffffffffffffffffff16815260200190815260200160002083815481101515613ed857fe5b90600052602060002090600602016000015414151515613f60576040517f08c379a000000000000000000000000000000000000000000000000000000000815260040180806020018281038252600b8152602001807f6e6f7420696e697469616c00000000000000000000000000000000000000000081525060200191505060405180910390fd5b600860008473ffffffffffffffffffffffffffffffffffffffff1673ffffffffffffffffffffffffffffffffffffffff16815260200190815260200160002082815481101515613fac57fe5b906000526020600020906006020160050160009054906101000a900473ffffffffffffffffffffffffffffffffffffffff16905092915050565b60055481565b600160009054906101000a900473ffffffffffffffffffffffffffffffffffffffff1681565b600061401c6159a7565b600654831015801561403057506007548311155b15156140a4576040517f08c379a000000000000000000000000000000000000000000000000000000000815260040180806020018281038252600e8152602001807f6572726f72206c6f636b54696d6500000000000000000000000000000000000081525060200191505060405180910390fd5b34915060c06040519081016040528042815260200184815260200183815260200186600019168152602001600173ffffffffffffffffffffffffffffffffffffffff1681526020018573ffffffffffffffffffffffffffffffffffffffff168152509050600860003373ffffffffffffffffffffffffffffffffffffffff1673ffffffffffffffffffffffffffffffffffffffff16815260200190815260200160002081908060018154018082558091505090600182039060005260206000209060060201600090919290919091506000820151816000015560208201518160010155604082015181600201556060820151816003019060001916905560808201518160040160006101000a81548173ffffffffffffffffffffffffffffffffffffffff021916908373ffffffffffffffffffffffffffffffffffffffff16021790555060a08201518160050160006101000a81548173ffffffffffffffffffffffffffffffffffffffff021916908373ffffffffffffffffffffffffffffffffffffffff160217905550505050817f98b44e5e9264e0a53d90b9b487ffb7db9540762c702713626c4c3df90ae9a0dc338660008988604051808673ffffffffffffffffffffffffffffffffffffffff1673ffffffffffffffffffffffffffffffffffffffff1681526020018573ffffffffffffffffffffffffffffffffffffffff1673ffffffffffffffffffffffffffffffffffffffff1681526020018473ffffffffffffffffffffffffffffffffffffffff16815260200183600019166000191681526020018281526020019550505050505060405180910390a25050505050565b6000806143d8600860008673ffffffffffffffffffffffffffffffffffffffff1673ffffffffffffffffffffffffffffffffffffffff1681526020019081526020016000208481548110151561435a57fe5b906000526020600020906006020160010154600860008773ffffffffffffffffffffffffffffffffffffffff1673ffffffffffffffffffffffffffffffffffffffff168152602001908152602001600020858154811015156143b857fe5b90600052602060002090600602016000015461596590919063ffffffff16565b9050428110151515614452576040517f08c379a000000000000000000000000000000000000000000000000000000000815260040180806020018281038252601a8152602001807f616c726561647920656e64206f72206e6f7420696e697469616c00000000000081525060200191505060405180910390fd5b614465428261598690919063ffffffff16565b91505092915050565b6000600360009054906101000a900460ff1615151561448c57600080fd5b4261455a600860008673ffffffffffffffffffffffffffffffffffffffff1673ffffffffffffffffffffffffffffffffffffffff168152602001908152602001600020848154811015156144dc57fe5b906000526020600020906006020160010154600860008773ffffffffffffffffffffffffffffffffffffffff1673ffffffffffffffffffffffffffffffffffffffff1681526020019081526020016000208581548110151561453a57fe5b90600052602060002090600602016000015461596590919063ffffffff16565b101515156145d0576040517f08c379a00000000000000000000000000000000000000000000000000000000081526004018080602001828103825260068152602001807f6c6f636b6564000000000000000000000000000000000000000000000000000081525060200191505060405180910390fd5b61466c600860008573ffffffffffffffffffffffffffffffffffffffff1673ffffffffffffffffffffffffffffffffffffffff1681526020019081526020016000208381548110151561461f57fe5b906000526020600020906006020160040160009054906101000a900473ffffffffffffffffffffffffffffffffffffffff1673ffffffffffffffffffffffffffffffffffffffff16615952565b15156146e0576040517f08c379a00000000000000000000000000000000000000000000000000000000081526004018080602001828103825260138152602001807f6572726f7220746f6b656e20616464726573730000000000000000000000000081525060200191505060405180910390fd5b600860008473ffffffffffffffffffffffffffffffffffffffff1673ffffffffffffffffffffffffffffffffffffffff1681526020019081526020016000208281548110151561472c57fe5b906000526020600020906006020160040160009054906101000a900473ffffffffffffffffffffffffffffffffffffffff1690508073ffffffffffffffffffffffffffffffffffffffff166323b872dd3085600860008873ffffffffffffffffffffffffffffffffffffffff1673ffffffffffffffffffffffffffffffffffffffff168152602001908152602001600020868154811015156147ca57fe5b9060005260206000209060060201600201546040518463ffffffff167c0100000000000000000000000000000000000000000000000000000000028152600401808473ffffffffffffffffffffffffffffffffffffffff1673ffffffffffffffffffffffffffffffffffffffff1681526020018373ffffffffffffffffffffffffffffffffffffffff1673ffffffffffffffffffffffffffffffffffffffff1681526020018281526020019350505050600060405180830381600087803b15801561489457600080fd5b505af11580156148a8573d6000803e3d6000fd5b505050506148b6838361562b565b600860008473ffffffffffffffffffffffffffffffffffffffff1673ffffffffffffffffffffffffffffffffffffffff1681526020019081526020016000208281548110151561490257fe5b9060005260206000209060060201600201547f72c0537c2d7d56e35107e50e9f5bba05c2906acc21290861f1bf8ea8d9693a3884600860008773ffffffffffffffffffffffffffffffffffffffff1673ffffffffffffffffffffffffffffffffffffffff1681526020019081526020016000208581548110151561498257fe5b906000526020600020906006020160040160009054906101000a900473ffffffffffffffffffffffffffffffffffffffff16600860008873ffffffffffffffffffffffffffffffffffffffff1673ffffffffffffffffffffffffffffffffffffffff16815260200190815260200160002086815481101515614a0057fe5b906000526020600020906006020160030154604051808473ffffffffffffffffffffffffffffffffffffffff1673ffffffffffffffffffffffffffffffffffffffff1681526020018373ffffffffffffffffffffffffffffffffffffffff1673ffffffffffffffffffffffffffffffffffffffff1681526020018260001916600019168152602001935050505060405180910390a2505050565b6000809054906101000a900473ffffffffffffffffffffffffffffffffffffffff1673ffffffffffffffffffffffffffffffffffffffff163373ffffffffffffffffffffffffffffffffffffffff16141515614af557600080fd5b80600160006101000a81548173ffffffffffffffffffffffffffffffffffffffff021916908373ffffffffffffffffffffffffffffffffffffffff16021790555050565b6000614b436159a7565b600360009054906101000a900460ff16151515614b5f57600080fd5b614b7e8573ffffffffffffffffffffffffffffffffffffffff16615952565b1515614bf2576040517f08c379a00000000000000000000000000000000000000000000000000000000081526004018080602001828103825260138152602001807f6572726f7220746f6b656e20616464726573730000000000000000000000000081525060200191505060405180910390fd5b6004548310158015614c0657506005548311155b1515614c7a576040517f08c379a000000000000000000000000000000000000000000000000000000000815260040180806020018281038252600e8152602001807f6572726f72206c6f636b54696d6500000000000000000000000000000000000081525060200191505060405180910390fd5b8491508173ffffffffffffffffffffffffffffffffffffffff166323b872dd3330896040518463ffffffff167c0100000000000000000000000000000000000000000000000000000000028152600401808473ffffffffffffffffffffffffffffffffffffffff1673ffffffffffffffffffffffffffffffffffffffff1681526020018373ffffffffffffffffffffffffffffffffffffffff1673ffffffffffffffffffffffffffffffffffffffff1681526020018281526020019350505050602060405180830381600087803b158015614d5457600080fd5b505af1158015614d68573d6000803e3d6000fd5b505050506040513d6020811015614d7e57600080fd5b810190808051906020019092919050505015614f1f5760c060405190810160405280428152602001848152602001878152602001886000191681526020018673ffffffffffffffffffffffffffffffffffffffff1681526020018573ffffffffffffffffffffffffffffffffffffffff168152509050600860003373ffffffffffffffffffffffffffffffffffffffff1673ffffffffffffffffffffffffffffffffffffffff16815260200190815260200160002081908060018154018082558091505090600182039060005260206000209060060201600090919290919091506000820151816000015560208201518160010155604082015181600201556060820151816003019060001916905560808201518160040160006101000a81548173ffffffffffffffffffffffffffffffffffffffff021916908373ffffffffffffffffffffffffffffffffffffffff16021790555060a08201518160050160006101000a81548173ffffffffffffffffffffffffffffffffffffffff021916908373ffffffffffffffffffffffffffffffffffffffff1602179055505050505b857f98b44e5e9264e0a53d90b9b487ffb7db9540762c702713626c4c3df90ae9a0dc3386888b88604051808673ffffffffffffffffffffffffffffffffffffffff1673ffffffffffffffffffffffffffffffffffffffff1681526020018573ffffffffffffffffffffffffffffffffffffffff1673ffffffffffffffffffffffffffffffffffffffff1681526020018473ffffffffffffffffffffffffffffffffffffffff1673ffffffffffffffffffffffffffffffffffffffff16815260200183600019166000191681526020018281526020019550505050505060405180910390a250505050505050565b6000806000856040516020018082805190602001908083835b60208310151561504a5780518252602082019150602081019050602083039250615025565b6001836020036101000a0380198251168184511680821785525050505050509050019150506040516020818303038152906040526040518082805190602001908083835b6020831015156150b3578051825260208201915060208101905060208303925061508e565b6001836020036101000a0380198251168184511680821785525050505050509050019150506040518091039020925082600860008773ffffffffffffffffffffffffffffffffffffffff1673ffffffffffffffffffffffffffffffffffffffff1681526020019081526020016000208581548110151561512f57fe5b90600052602060002090600602016003018160001916905550600860008673ffffffffffffffffffffffffffffffffffffffff1673ffffffffffffffffffffffffffffffffffffffff1681526020019081526020016000208481548110151561519457fe5b906000526020600020906006020160040160009054906101000a900473ffffffffffffffffffffffffffffffffffffffff1691508190508073ffffffffffffffffffffffffffffffffffffffff1663a9059cbb600860008873ffffffffffffffffffffffffffffffffffffffff1673ffffffffffffffffffffffffffffffffffffffff1681526020019081526020016000208681548110151561523357fe5b906000526020600020906006020160050160009054906101000a900473ffffffffffffffffffffffffffffffffffffffff16600860008973ffffffffffffffffffffffffffffffffffffffff1673ffffffffffffffffffffffffffffffffffffffff168152602001908152602001600020878154811015156152b157fe5b9060005260206000209060060201600201546040518363ffffffff167c0100000000000000000000000000000000000000000000000000000000028152600401808373ffffffffffffffffffffffffffffffffffffffff1673ffffffffffffffffffffffffffffffffffffffff16815260200182815260200192505050602060405180830381600087803b15801561534857600080fd5b505af115801561535c573d6000803e3d6000fd5b505050506040513d602081101561537257600080fd5b81019080805190602001909291905050501561562357615392858561562b565b600860008673ffffffffffffffffffffffffffffffffffffffff1673ffffffffffffffffffffffffffffffffffffffff168152602001908152602001600020848154811015156153de57fe5b9060005260206000209060060201600201547f68e813c93814923933c25a9a75d08e1c5067016031bcf913824946294a95d91f86600860008973ffffffffffffffffffffffffffffffffffffffff1673ffffffffffffffffffffffffffffffffffffffff1681526020019081526020016000208781548110151561545e57fe5b906000526020600020906006020160050160009054906101000a900473ffffffffffffffffffffffffffffffffffffffff16600860008a73ffffffffffffffffffffffffffffffffffffffff1673ffffffffffffffffffffffffffffffffffffffff168152602001908152602001600020888154811015156154dc57fe5b906000526020600020906006020160040160009054906101000a900473ffffffffffffffffffffffffffffffffffffffff16600860008b73ffffffffffffffffffffffffffffffffffffffff1673ffffffffffffffffffffffffffffffffffffffff1681526020019081526020016000208981548110151561555a57fe5b906000526020600020906006020160030154604051808573ffffffffffffffffffffffffffffffffffffffff1673ffffffffffffffffffffffffffffffffffffffff1681526020018473ffffffffffffffffffffffffffffffffffffffff1673ffffffffffffffffffffffffffffffffffffffff1681526020018373ffffffffffffffffffffffffffffffffffffffff1673ffffffffffffffffffffffffffffffffffffffff168152602001826000191660001916815260200194505050505060405180910390a25b505050505050565b6000600860008473ffffffffffffffffffffffffffffffffffffffff1673ffffffffffffffffffffffffffffffffffffffff168152602001908152602001600020805490509050600860008473ffffffffffffffffffffffffffffffffffffffff1673ffffffffffffffffffffffffffffffffffffffff168152602001908152602001600020600182038154811015156156c157fe5b9060005260206000209060060201600860008573ffffffffffffffffffffffffffffffffffffffff1673ffffffffffffffffffffffffffffffffffffffff1681526020019081526020016000208381548110151561571b57fe5b9060005260206000209060060201600082015481600001556001820154816001015560028201548160020155600382015481600301906000191690556004820160009054906101000a900473ffffffffffffffffffffffffffffffffffffffff168160040160006101000a81548173ffffffffffffffffffffffffffffffffffffffff021916908373ffffffffffffffffffffffffffffffffffffffff1602179055506005820160009054906101000a900473ffffffffffffffffffffffffffffffffffffffff168160050160006101000a81548173ffffffffffffffffffffffffffffffffffffffff021916908373ffffffffffffffffffffffffffffffffffffffff160217905550905050600860008473ffffffffffffffffffffffffffffffffffffffff1673ffffffffffffffffffffffffffffffffffffffff1681526020019081526020016000206001820381548110151561587757fe5b90600052602060002090600602016000808201600090556001820160009055600282016000905560038201600090556004820160006101000a81549073ffffffffffffffffffffffffffffffffffffffff02191690556005820160006101000a81549073ffffffffffffffffffffffffffffffffffffffff0219169055505061594c6001600860008673ffffffffffffffffffffffffffffffffffffffff1673ffffffffffffffffffffffffffffffffffffffff1681526020019081526020016000208054905061598690919063ffffffff16565b50505050565b600080823b905060008111915050919050565b600080828401905083811015151561597c57600080fd5b8091505092915050565b60008083831115151561599857600080fd5b82840390508091505092915050565b60c06040519081016040528060008152602001600081526020016000815260200160008019168152602001600073ffffffffffffffffffffffffffffffffffffffff168152602001600073ffffffffffffffffffffffffffffffffffffffff16815250905600a165627a7a723058207d72f4a344aa7acba51f2dedbd2ff350314a4bc9114d0a0361478d5da75a460f0029",
  "source": "pragma solidity ^0.4.24;\r\n\r\nimport \"./SafeMath.sol\";\r\nimport \"./AddressUtils.sol\";\r\nimport \"./Pausable.sol\";\r\n\r\n/**\r\n * @title Gateway\r\n * @dev player recharge ERC20 token to BTC and oppesite operation\r\n * @dev only support recharge once a period.\r\n */\r\ncontract Gateway_HTLC is Pausable {\r\n    using SafeMath for uint256;\r\n    using AddressUtils for address;\r\n\r\n    event Recharge(address _from, address _to, uint256 indexed _amount, address _tokenAddress, bytes32 _hash, uint256 _lockTime);\r\n    event Withdraw(address _from, address _to, uint256 indexed _amount, address _tokenAddress, bytes32 _hash);\r\n    event BackTo(address _from, uint256 indexed _amount, address _tokenAddress, bytes32 _hash);\r\n\r\n    uint256 public minLockTime = 2 days;\r\n    uint256 public maxLockTime = 5 days;\r\n\r\n    uint256 public minLockTime2 = 0.5 days;\r\n    uint256 public maxLockTime2 = 1 days;\r\n\r\n    mapping (address => Locker[]) lockers;\r\n    \r\n    struct Locker {\r\n        uint256 startTime;\r\n        uint256 lockTime;\r\n        uint256 amount; // erc20 & coin's amount or nft's tokenId\r\n        bytes32 hashStr;\r\n        address tokenAddress; // ETHaddress(1); 0\r\n        address to;\r\n    }\r\n\r\n\r\n    constructor() public {\r\n        owner = msg.sender;\r\n        admins[msg.sender] = true;\r\n    }\r\n\r\n\r\n\r\n    function setLockTime(uint256 _type, uint256 _time)\r\n        public\r\n        onlyAdmins\r\n    {\r\n        if(_type == 1) {\r\n            minLockTime = _time;\r\n        } else if(_type == 2) {\r\n            maxLockTime = _time;\r\n        } else if(_type == 3) {\r\n            minLockTime2 = _time;\r\n        } else if(_type == 4) {\r\n            maxLockTime2 = _time;\r\n        } else {\r\n            revert();\r\n        }\r\n    }\r\n\r\n\r\n    /**\r\n     * @dev Hashed Timelock Contracts\r\n     */\r\n    function recharge(bytes32 _hash, uint256 _amount, address _tokenAddr, address _to, uint256 _lockTime) \r\n        public\r\n        whenNotPaused\r\n    {\r\n        require(_tokenAddr.isContract(), \"error token address\");\r\n        require(_lockTime >= minLockTime && _lockTime <= maxLockTime, \"error lockTime\");\r\n\r\n        ERC20Interface token = ERC20Interface(_tokenAddr);\r\n\r\n        if(token.transferFrom(msg.sender, address(this), _amount)) {\r\n            Locker memory locker = Locker(now, _lockTime, _amount, _hash, _tokenAddr, _to);\r\n\r\n            lockers[msg.sender].push(locker);\r\n        }\r\n\r\n        emit Recharge(msg.sender, _to, _amount, _tokenAddr, _hash, _lockTime);\r\n    }\r\n\r\n\r\n    /**\r\n     * @dev Hashed Timelock Contracts\r\n     * @dev Qtum, Eth, Eos and so on\r\n     */\r\n    function rechargeInCoin(bytes32 _hash, address _to, uint256 _lockTime) \r\n        public\r\n        payable\r\n    {\r\n        require(_lockTime >= minLockTime && _lockTime <= maxLockTime, \"error lockTime\");\r\n\r\n        uint256 _amount = msg.value;\r\n\r\n        Locker memory locker = Locker(now, _lockTime, _amount, _hash, address(1), _to);\r\n\r\n        lockers[msg.sender].push(locker);\r\n\r\n        emit Recharge(msg.sender, _to, _amount, 0x0, _hash, _lockTime);\r\n    }\r\n\r\n\r\n    /**\r\n     * @dev Hashed Timelock Contracts\r\n     * @dev ERC721 token, NFT, ie:cryptokitties\r\n     */\r\n    function rechargeInNFT(bytes32 _hash, uint256 _tokenId, address _tokenAddr, address _to, uint256 _lockTime) \r\n        public\r\n    {\r\n        require(_tokenAddr.isContract(), \"error token address\");\r\n        require(_lockTime >= minLockTime && _lockTime <= maxLockTime, \"error lockTime\");\r\n\r\n        ERC721Interface token = ERC721Interface(_tokenAddr);\r\n\r\n        token.transferFrom(msg.sender, address(this), _tokenId);\r\n\r\n        Locker memory locker = Locker(now, _lockTime, _tokenId, _hash, _tokenAddr, _to);\r\n        lockers[msg.sender].push(locker);\r\n\r\n        emit Recharge(msg.sender, _to, _tokenId, _tokenAddr, _hash, _lockTime);\r\n    }\r\n\r\n/*\r\n    function recharge(address _addr, uint256 _amount)\r\n        public\r\n        onlyAdmins\r\n    {\r\n        blance[_addr] = blance[_addr].add(_amount);\r\n        emit Recharge(_addr, _amount);\r\n    }\r\n*/\r\n    /**\r\n     * @dev _index is the index of address's locker.\r\n     */\r\n    function withdrawTo(string _key, address _from, uint256 _index)\r\n        public\r\n    {\r\n        bytes32 _hash = keccak256(abi.encodePacked(_key));\r\n        address _tokenAddr = lockers[_from][_index].tokenAddress;\r\n        require(_hash == lockers[_from][_index].hashStr, \"key error\");\r\n        require(_tokenAddr.isContract(), \"error token address\");        \r\n        \r\n        address _tokenAddress = lockers[_from][_index].tokenAddress;\r\n\r\n        ERC20Interface token = ERC20Interface(_tokenAddress);\r\n\r\n        if(token.transfer(lockers[_from][_index].to, lockers[_from][_index].amount)) {\r\n            deleteLocker(_from, _index);\r\n            emit Withdraw(_from, lockers[_from][_index].to, lockers[_from][_index].amount, lockers[_from][_index].tokenAddress, lockers[_from][_index].hashStr);\r\n        }\r\n    }\r\n\r\n    function withdrawToInCoin(string _key, address _from, uint256 _index)\r\n        public\r\n    {\r\n        bytes32 _hash = keccak256(abi.encodePacked(_key));\r\n        lockers[_from][_index].hashStr = _hash;\r\n\r\n        lockers[_from][_index].to.transfer(lockers[_from][_index].amount);\r\n        deleteLocker(_from, _index);\r\n        emit Withdraw(_from, lockers[_from][_index].to, lockers[_from][_index].amount, lockers[_from][_index].tokenAddress, lockers[_from][_index].hashStr);   \r\n    }\r\n\r\n    function withdrawToInNFT(string _key, address _from, uint256 _index) \r\n        public\r\n    {\r\n        bytes32 _hash = keccak256(abi.encodePacked(_key));\r\n        lockers[_from][_index].hashStr = _hash;\r\n\r\n        address _tokenAddress = lockers[_from][_index].tokenAddress;\r\n\r\n        ERC20Interface token = ERC20Interface(_tokenAddress);\r\n\r\n        if(token.transfer(lockers[_from][_index].to, lockers[_from][_index].amount)) {\r\n            deleteLocker(_from, _index);\r\n            emit Withdraw(_from, lockers[_from][_index].to, lockers[_from][_index].amount, lockers[_from][_index].tokenAddress, lockers[_from][_index].hashStr);\r\n        } \r\n    }\r\n\r\n    function recharge2(bytes32 _hash, uint256 _amount, address _tokenAddr, address _to, uint256 _lockTime) \r\n        public\r\n        whenNotPaused\r\n    {\r\n        require(_tokenAddr.isContract(), \"error token address\");\r\n        require(_lockTime >= minLockTime2 && _lockTime <= maxLockTime2, \"error lockTime\");\r\n\r\n        ERC20Interface token = ERC20Interface(_tokenAddr);\r\n\r\n        if(token.transferFrom(msg.sender, address(this), _amount)) {\r\n            Locker memory locker = Locker(now, _lockTime, _amount, _hash, _tokenAddr, _to);\r\n\r\n            lockers[msg.sender].push(locker);\r\n        }\r\n\r\n        emit Recharge(msg.sender, _to, _amount, _tokenAddr, _hash, _lockTime);\r\n    }\r\n\r\n    /**\r\n     * @dev Hashed Timelock Contracts\r\n     * @dev Qtum, Eth, Eos and so on\r\n     */\r\n    function rechargeInCoin2(bytes32 _hash, address _to, uint256 _lockTime) \r\n        public\r\n        payable\r\n    {\r\n        require(_lockTime >= minLockTime2 && _lockTime <= maxLockTime2, \"error lockTime\");\r\n\r\n        uint256 _amount = msg.value;\r\n\r\n        Locker memory locker = Locker(now, _lockTime, _amount, _hash, address(1), _to);\r\n\r\n        lockers[msg.sender].push(locker);\r\n\r\n        emit Recharge(msg.sender, _to, _amount, 0x0, _hash, _lockTime);\r\n    }\r\n\r\n\r\n    /**\r\n     * @dev Hashed Timelock Contracts\r\n     * @dev ERC721 token, NFT, ie:cryptokitties\r\n     */\r\n    function rechargeInNFT2(bytes32 _hash, uint256 _tokenId, address _tokenAddr, address _to, uint256 _lockTime) \r\n        public\r\n    {\r\n        require(_tokenAddr.isContract(), \"error token address\");\r\n        require(_lockTime >= minLockTime2 && _lockTime <= maxLockTime2, \"error lockTime\");\r\n\r\n        ERC721Interface token = ERC721Interface(_tokenAddr);\r\n\r\n        token.transferFrom(msg.sender, address(this), _tokenId);\r\n\r\n        Locker memory locker = Locker(now, _lockTime, _tokenId, _hash, _tokenAddr, _to);\r\n        lockers[msg.sender].push(locker);\r\n\r\n        emit Recharge(msg.sender, _to, _tokenId, _tokenAddr, _hash, _lockTime);\r\n    }\r\n\r\n    function deleteLocker(address _owner, uint256 _index)\r\n        internal\r\n    {\r\n        uint256 len = lockers[_owner].length;\r\n        lockers[_owner][_index]=lockers[_owner][len-1];\r\n        delete lockers[_owner][len-1];\r\n        lockers[_owner].length.sub(1);\r\n    }\r\n\r\n    function backTo(address _from, uint256 _index)\r\n        public\r\n        whenNotPaused\r\n    {\r\n        require(lockers[_from][_index].startTime.add(lockers[_from][_index].lockTime) >= now, \"locked\");\r\n        require(lockers[_from][_index].tokenAddress.isContract(), \"error token address\");\r\n        \r\n        ERC20Interface token = ERC20Interface(lockers[_from][_index].tokenAddress);\r\n        \r\n        if(token.transfer(_from, lockers[_from][_index].amount)) {\r\n            deleteLocker(_from, _index);\r\n            emit BackTo(_from, lockers[_from][_index].amount, lockers[_from][_index].tokenAddress, lockers[_from][_index].hashStr);\r\n        }\r\n    }\r\n\r\n    function backToInCoin(address _from, uint256 _index)\r\n        public\r\n        whenNotPaused\r\n    {\r\n        require(lockers[_from][_index].startTime.add(lockers[_from][_index].lockTime) >= now, \"locked\");\r\n        require(lockers[_from][_index].tokenAddress == address(1), \"error token address\");\r\n    \r\n        \r\n        _from.transfer(lockers[_from][_index].amount);\r\n\r\n        deleteLocker(_from, _index);\r\n        emit BackTo(_from, lockers[_from][_index].amount, lockers[_from][_index].tokenAddress, lockers[_from][_index].hashStr);\r\n    }\r\n\r\n    function backToInNFT(address _from, uint256 _index)\r\n        public\r\n        whenNotPaused\r\n    {\r\n        require(lockers[_from][_index].startTime.add(lockers[_from][_index].lockTime) >= now, \"locked\");\r\n        require(lockers[_from][_index].tokenAddress.isContract(), \"error token address\");\r\n        \r\n        ERC721Interface token = ERC721Interface(lockers[_from][_index].tokenAddress);\r\n        \r\n        // amount standard for token ID\r\n        token.transferFrom(address(this), _from, lockers[_from][_index].amount);\r\n        deleteLocker(_from, _index);\r\n        emit BackTo(_from, lockers[_from][_index].amount, lockers[_from][_index].tokenAddress, lockers[_from][_index].hashStr);\r\n        \r\n    \r\n    }    \r\n   \r\n\r\n    function blanceOf(address _addr, uint256 _index)\r\n        public\r\n        view\r\n        returns (uint256)\r\n    {\r\n        require(lockers[_addr][_index].startTime != 0, \"not initial\");        \r\n        return lockers[_addr][_index].amount;\r\n    }\r\n\r\n    function getHashOf(address _addr, uint256 _index)\r\n        public\r\n        view\r\n        returns (bytes32)\r\n    {   \r\n        require(lockers[_addr][_index].startTime != 0, \"not initial\");\r\n        return  lockers[_addr][_index].hashStr;\r\n    }\r\n\r\n    function getUnlockTime(address _addr, uint256 _index)\r\n        public\r\n        view\r\n        returns (uint256)\r\n    {\r\n        uint256 _time = lockers[_addr][_index].startTime.add(lockers[_addr][_index].lockTime);\r\n        require(_time >= now, \"already end or not initial\");\r\n\r\n        return _time.sub(now); \r\n    }\r\n\r\n    function getToAddr(address _addr, uint256 _index)\r\n        public\r\n        view\r\n        returns (address)\r\n    {\r\n        require(lockers[_addr][_index].startTime != 0, \"not initial\");\r\n        return lockers[_addr][_index].to;        \r\n    }\r\n\r\n    function getTokenAddr(address _addr, uint256 _index)\r\n        public\r\n        view\r\n        returns (address)\r\n    {\r\n        require(lockers[_addr][_index].startTime != 0, \"not initial\");\r\n        return lockers[_addr][_index].tokenAddress;\r\n    }\r\n\r\n}\r\n\r\ninterface ERC20Interface {\r\n    function transfer(address to, uint256 tokens) external returns (bool success);\r\n    function transferFrom(address from, address to, uint256 tokens) external returns (bool success);\r\n}\r\n\r\ninterface ERC721Interface {\r\n    function transferFrom(address from, address to, uint256 tokenId) external;\r\n}",
  "sourcePath": "/Users/zhouliqihan/proj/tac/LeblockPlatformJs/contracts/Gateway_HTLC.sol",
  "compiler": {
    "name": "solc",
    "version": "0.4.24+commit.e67f0147.Emscripten.clang"
  },
  "schemaVersion": "2.0.1",
  "updatedAt": "2018-09-25T17:30:05.558Z"
}