{
  "contractName": "WareHouse",
  "abi": [
    {
      "constant": true,
      "inputs": [],
      "name": "BPaddress",
      "outputs": [
        {
          "name": "",
          "type": "address"
        }
      ],
      "payable": false,
      "stateMutability": "view",
      "type": "function"
    },
    {
      "constant": true,
      "inputs": [
        {
          "name": "",
          "type": "uint256"
        }
      ],
      "name": "addressOf",
      "outputs": [
        {
          "name": "",
          "type": "address"
        }
      ],
      "payable": false,
      "stateMutability": "view",
      "type": "function"
    },
    {
      "constant": false,
      "inputs": [
        {
          "name": "_admin",
          "type": "address"
        }
      ],
      "name": "removeAdmin",
      "outputs": [],
      "payable": false,
      "stateMutability": "nonpayable",
      "type": "function"
    },
    {
      "constant": true,
      "inputs": [
        {
          "name": "",
          "type": "address"
        }
      ],
      "name": "admins",
      "outputs": [
        {
          "name": "",
          "type": "bool"
        }
      ],
      "payable": false,
      "stateMutability": "view",
      "type": "function"
    },
    {
      "constant": false,
      "inputs": [
        {
          "name": "_admin",
          "type": "address"
        }
      ],
      "name": "addAdmin",
      "outputs": [],
      "payable": false,
      "stateMutability": "nonpayable",
      "type": "function"
    },
    {
      "constant": false,
      "inputs": [],
      "name": "acceptOwnership",
      "outputs": [],
      "payable": false,
      "stateMutability": "nonpayable",
      "type": "function"
    },
    {
      "constant": true,
      "inputs": [],
      "name": "owner",
      "outputs": [
        {
          "name": "",
          "type": "address"
        }
      ],
      "payable": false,
      "stateMutability": "view",
      "type": "function"
    },
    {
      "constant": true,
      "inputs": [],
      "name": "newOwner",
      "outputs": [
        {
          "name": "",
          "type": "address"
        }
      ],
      "payable": false,
      "stateMutability": "view",
      "type": "function"
    },
    {
      "constant": false,
      "inputs": [
        {
          "name": "_newOwner",
          "type": "address"
        }
      ],
      "name": "transferOwnership",
      "outputs": [],
      "payable": false,
      "stateMutability": "nonpayable",
      "type": "function"
    },
    {
      "inputs": [],
      "payable": false,
      "stateMutability": "nonpayable",
      "type": "constructor"
    },
    {
      "anonymous": false,
      "inputs": [
        {
          "indexed": true,
          "name": "_indexed",
          "type": "uint256"
        },
        {
          "indexed": false,
          "name": "_ABaddress",
          "type": "address"
        }
      ],
      "name": "AddABaddress",
      "type": "event"
    },
    {
      "anonymous": false,
      "inputs": [
        {
          "indexed": true,
          "name": "_indexed",
          "type": "uint256"
        },
        {
          "indexed": false,
          "name": "_BeforeAddress",
          "type": "address"
        },
        {
          "indexed": false,
          "name": "_nowAddress",
          "type": "address"
        },
        {
          "indexed": false,
          "name": "_length",
          "type": "uint256"
        }
      ],
      "name": "DelABaddress",
      "type": "event"
    },
    {
      "anonymous": false,
      "inputs": [
        {
          "indexed": false,
          "name": "_before",
          "type": "address"
        },
        {
          "indexed": false,
          "name": "_now",
          "type": "address"
        }
      ],
      "name": "ChangeBPaddress",
      "type": "event"
    },
    {
      "anonymous": false,
      "inputs": [
        {
          "indexed": false,
          "name": "_BPindex",
          "type": "uint256"
        },
        {
          "indexed": false,
          "name": "_BPhash",
          "type": "string"
        }
      ],
      "name": "Compose",
      "type": "event"
    },
    {
      "anonymous": false,
      "inputs": [
        {
          "indexed": false,
          "name": "_BPindex",
          "type": "uint256"
        },
        {
          "indexed": false,
          "name": "_BPhash",
          "type": "string"
        }
      ],
      "name": "DeCompose",
      "type": "event"
    },
    {
      "anonymous": false,
      "inputs": [
        {
          "indexed": false,
          "name": "_ABaddress",
          "type": "address"
        },
        {
          "indexed": false,
          "name": "_toAddress",
          "type": "address"
        },
        {
          "indexed": false,
          "name": "_amount",
          "type": "uint256"
        }
      ],
      "name": "GetAB",
      "type": "event"
    },
    {
      "anonymous": false,
      "inputs": [
        {
          "indexed": true,
          "name": "_from",
          "type": "address"
        },
        {
          "indexed": true,
          "name": "_to",
          "type": "address"
        }
      ],
      "name": "OwnershipTransferred",
      "type": "event"
    },
    {
      "constant": false,
      "inputs": [
        {
          "name": "_ABaddress",
          "type": "address"
        }
      ],
      "name": "addABaddress",
      "outputs": [],
      "payable": false,
      "stateMutability": "nonpayable",
      "type": "function"
    },
    {
      "constant": false,
      "inputs": [
        {
          "name": "_index",
          "type": "uint256"
        },
        {
          "name": "_ABaddress",
          "type": "address"
        }
      ],
      "name": "delABaddress",
      "outputs": [],
      "payable": false,
      "stateMutability": "nonpayable",
      "type": "function"
    },
    {
      "constant": false,
      "inputs": [
        {
          "name": "_new",
          "type": "address"
        }
      ],
      "name": "changeBPaddress",
      "outputs": [],
      "payable": false,
      "stateMutability": "nonpayable",
      "type": "function"
    },
    {
      "constant": false,
      "inputs": [
        {
          "name": "BPhash",
          "type": "string"
        }
      ],
      "name": "compose",
      "outputs": [],
      "payable": false,
      "stateMutability": "nonpayable",
      "type": "function"
    },
    {
      "constant": false,
      "inputs": [
        {
          "name": "BPhash",
          "type": "string"
        }
      ],
      "name": "deCompose",
      "outputs": [],
      "payable": false,
      "stateMutability": "nonpayable",
      "type": "function"
    },
    {
      "constant": true,
      "inputs": [
        {
          "name": "BPhash",
          "type": "string"
        }
      ],
      "name": "estimate",
      "outputs": [
        {
          "name": "",
          "type": "uint256[]"
        }
      ],
      "payable": false,
      "stateMutability": "view",
      "type": "function"
    },
    {
      "constant": false,
      "inputs": [
        {
          "name": "BPhash",
          "type": "string"
        },
        {
          "name": "lock",
          "type": "bool"
        }
      ],
      "name": "setLock",
      "outputs": [],
      "payable": false,
      "stateMutability": "nonpayable",
      "type": "function"
    },
    {
      "constant": true,
      "inputs": [
        {
          "name": "BPhash",
          "type": "string"
        }
      ],
      "name": "lockState",
      "outputs": [
        {
          "name": "",
          "type": "bool"
        }
      ],
      "payable": false,
      "stateMutability": "view",
      "type": "function"
    },
    {
      "constant": true,
      "inputs": [],
      "name": "getABsort",
      "outputs": [
        {
          "name": "",
          "type": "uint256"
        }
      ],
      "payable": false,
      "stateMutability": "view",
      "type": "function"
    },
    {
      "constant": true,
      "inputs": [
        {
          "name": "_index",
          "type": "uint256"
        }
      ],
      "name": "getABaddress",
      "outputs": [
        {
          "name": "",
          "type": "address"
        }
      ],
      "payable": false,
      "stateMutability": "view",
      "type": "function"
    },
    {
      "constant": true,
      "inputs": [
        {
          "name": "BPhash",
          "type": "string"
        }
      ],
      "name": "getTokenId",
      "outputs": [
        {
          "name": "",
          "type": "uint256"
        }
      ],
      "payable": false,
      "stateMutability": "view",
      "type": "function"
    },
    {
      "constant": false,
      "inputs": [
        {
          "name": "_ABaddress",
          "type": "address"
        },
        {
          "name": "_toAddress",
          "type": "address"
        },
        {
          "name": "_amount",
          "type": "uint256"
        }
      ],
      "name": "getERC20",
      "outputs": [],
      "payable": false,
      "stateMutability": "nonpayable",
      "type": "function"
    }
  ],
  "bytecode": "0x608060405234801561001057600080fd5b50336000806101000a81548173ffffffffffffffffffffffffffffffffffffffff021916908373ffffffffffffffffffffffffffffffffffffffff1602179055506001600260003373ffffffffffffffffffffffffffffffffffffffff1673ffffffffffffffffffffffffffffffffffffffff16815260200190815260200160002060006101000a81548160ff021916908315150217905550612855806100b86000396000f30060806040526004361061011c576000357c0100000000000000000000000000000000000000000000000000000000900463ffffffff16806234377b1461012157806311a800bc146101785780631785f53c146101e55780631e7663bc14610228578063301b9307146102a557806337a59139146102d05780633be746b61461038e578063429b62e51461040f57806358a531301461046a57806370480275146104d7578063765207131461051a578063767e2de81461058f57806379ba5097146105fc57806385609b1c1461061357806386770d5b1461067c5780638da5cb5b146106c9578063a38273d014610720578063ad23fdc314610763578063d4332f50146107cc578063d4ee1d901461080f578063f2fde38b14610866575b600080fd5b34801561012d57600080fd5b506101366108a9565b604051808273ffffffffffffffffffffffffffffffffffffffff1673ffffffffffffffffffffffffffffffffffffffff16815260200191505060405180910390f35b34801561018457600080fd5b506101a3600480360381019080803590602001909291905050506108cf565b604051808273ffffffffffffffffffffffffffffffffffffffff1673ffffffffffffffffffffffffffffffffffffffff16815260200191505060405180910390f35b3480156101f157600080fd5b50610226600480360381019080803573ffffffffffffffffffffffffffffffffffffffff16906020019092919050505061090d565b005b34801561023457600080fd5b5061028f600480360381019080803590602001908201803590602001908080601f01602080910402602001604051908101604052809392919081815260200183838082843782019150505050505091929192905050506109ba565b6040518082815260200191505060405180910390f35b3480156102b157600080fd5b506102ba610a2f565b6040518082815260200191505060405180910390f35b3480156102dc57600080fd5b50610337600480360381019080803590602001908201803590602001908080601f0160208091040260200160405190810160405280939291908181526020018383808284378201915050505050509192919290505050610a3c565b6040518080602001828103825283818151815260200191508051906020019060200280838360005b8381101561037a57808201518184015260208101905061035f565b505050509050019250505060405180910390f35b34801561039a57600080fd5b506103f5600480360381019080803590602001908201803590602001908080601f0160208091040260200160405190810160405280939291908181526020018383808284378201915050505050509192919290505050610ac3565b604051808215151515815260200191505060405180910390f35b34801561041b57600080fd5b50610450600480360381019080803573ffffffffffffffffffffffffffffffffffffffff169060200190929190505050610b45565b604051808215151515815260200191505060405180910390f35b34801561047657600080fd5b5061049560048036038101908080359060200190929190505050610b65565b604051808273ffffffffffffffffffffffffffffffffffffffff1673ffffffffffffffffffffffffffffffffffffffff16815260200191505060405180910390f35b3480156104e357600080fd5b50610518600480360381019080803573ffffffffffffffffffffffffffffffffffffffff169060200190929190505050610bbb565b005b34801561052657600080fd5b5061058d600480360381019080803590602001908201803590602001908080601f0160208091040260200160405190810160405280939291908181526020018383808284378201915050505050509192919290803515159060200190929190505050610c71565b005b34801561059b57600080fd5b506105fa600480360381019080803573ffffffffffffffffffffffffffffffffffffffff169060200190929190803573ffffffffffffffffffffffffffffffffffffffff16906020019092919080359060200190929190505050610d50565b005b34801561060857600080fd5b50610611610f31565b005b34801561061f57600080fd5b5061067a600480360381019080803590602001908201803590602001908080601f01602080910402602001604051908101604052809392919081815260200183838082843782019150505050505091929192905050506110d0565b005b34801561068857600080fd5b506106c760048036038101908080359060200190929190803573ffffffffffffffffffffffffffffffffffffffff169060200190929190505050611707565b005b3480156106d557600080fd5b506106de6119a7565b604051808273ffffffffffffffffffffffffffffffffffffffff1673ffffffffffffffffffffffffffffffffffffffff16815260200191505060405180910390f35b34801561072c57600080fd5b50610761600480360381019080803573ffffffffffffffffffffffffffffffffffffffff1690602001909291905050506119cc565b005b34801561076f57600080fd5b506107ca600480360381019080803590602001908201803590602001908080601f0160208091040260200160405190810160405280939291908181526020018383808284378201915050505050509192919290505050611b23565b005b3480156107d857600080fd5b5061080d600480360381019080803573ffffffffffffffffffffffffffffffffffffffff169060200190929190505050612047565b005b34801561081b57600080fd5b506108246121ee565b604051808273ffffffffffffffffffffffffffffffffffffffff1673ffffffffffffffffffffffffffffffffffffffff16815260200191505060405180910390f35b34801561087257600080fd5b506108a7600480360381019080803573ffffffffffffffffffffffffffffffffffffffff169060200190929190505050612214565b005b600660009054906101000a900473ffffffffffffffffffffffffffffffffffffffff1681565b6005818154811015156108de57fe5b906000526020600020016000915054906101000a900473ffffffffffffffffffffffffffffffffffffffff1681565b6000809054906101000a900473ffffffffffffffffffffffffffffffffffffffff1673ffffffffffffffffffffffffffffffffffffffff163373ffffffffffffffffffffffffffffffffffffffff1614151561096857600080fd5b600260008273ffffffffffffffffffffffffffffffffffffffff1673ffffffffffffffffffffffffffffffffffffffff16815260200190815260200160002060006101000a81549060ff021916905550565b60006007826040518082805190602001908083835b6020831015156109f457805182526020820191506020810190506020830392506109cf565b6001836020036101000a0380198251168184511680821785525050505050509050019150509081526020016040518091039020549050919050565b6000600580549050905090565b60608060006002604051908082528060200260200182016040528015610a715781602001602082028038833980820191505090505b509150600090505b8151811015610ab957670de0b6b3a764000060018201028282815181101515610a9e57fe5b90602001906020020181815250508080600101915050610a79565b8192505050919050565b60006004826040518082805190602001908083835b602083101515610afd5780518252602082019150602081019050602083039250610ad8565b6001836020036101000a038019825116818451168082178552505050505050905001915050908152602001604051809103902060009054906101000a900460ff169050919050565b60026020528060005260406000206000915054906101000a900460ff1681565b600060058054905082101515610b7a57600080fd5b600582815481101515610b8957fe5b9060005260206000200160009054906101000a900473ffffffffffffffffffffffffffffffffffffffff169050919050565b6000809054906101000a900473ffffffffffffffffffffffffffffffffffffffff1673ffffffffffffffffffffffffffffffffffffffff163373ffffffffffffffffffffffffffffffffffffffff16141515610c1657600080fd5b6001600260008373ffffffffffffffffffffffffffffffffffffffff1673ffffffffffffffffffffffffffffffffffffffff16815260200190815260200160002060006101000a81548160ff02191690831515021790555050565b600260003373ffffffffffffffffffffffffffffffffffffffff1673ffffffffffffffffffffffffffffffffffffffff16815260200190815260200160002060009054906101000a900460ff161515610cc957600080fd5b806004836040518082805190602001908083835b602083101515610d025780518252602082019150602081019050602083039250610cdd565b6001836020036101000a038019825116818451168082178552505050505050905001915050908152602001604051809103902060006101000a81548160ff0219169083151502179055505050565b6000600260003373ffffffffffffffffffffffffffffffffffffffff1673ffffffffffffffffffffffffffffffffffffffff16815260200190815260200160002060009054906101000a900460ff161515610daa57600080fd5b8390508073ffffffffffffffffffffffffffffffffffffffff1663a9059cbb84846040518363ffffffff167c0100000000000000000000000000000000000000000000000000000000028152600401808373ffffffffffffffffffffffffffffffffffffffff1673ffffffffffffffffffffffffffffffffffffffff16815260200182815260200192505050602060405180830381600087803b158015610e5057600080fd5b505af1158015610e64573d6000803e3d6000fd5b505050506040513d6020811015610e7a57600080fd5b8101908080519060200190929190505050507f9b3ba0f5fdedd0dafa9d9d150bc35602ed42038dfafae6d24910c5b836ba61b7848484604051808473ffffffffffffffffffffffffffffffffffffffff1673ffffffffffffffffffffffffffffffffffffffff1681526020018373ffffffffffffffffffffffffffffffffffffffff1673ffffffffffffffffffffffffffffffffffffffff168152602001828152602001935050505060405180910390a150505050565b600160009054906101000a900473ffffffffffffffffffffffffffffffffffffffff1673ffffffffffffffffffffffffffffffffffffffff163373ffffffffffffffffffffffffffffffffffffffff16141515610f8d57600080fd5b600160009054906101000a900473ffffffffffffffffffffffffffffffffffffffff1673ffffffffffffffffffffffffffffffffffffffff166000809054906101000a900473ffffffffffffffffffffffffffffffffffffffff1673ffffffffffffffffffffffffffffffffffffffff167f8be0079c531659141344cd1fd0a4f28419497f9722a3daafe3b4186f6b6457e060405160405180910390a3600160009054906101000a900473ffffffffffffffffffffffffffffffffffffffff166000806101000a81548173ffffffffffffffffffffffffffffffffffffffff021916908373ffffffffffffffffffffffffffffffffffffffff1602179055506000600160006101000a81548173ffffffffffffffffffffffffffffffffffffffff021916908373ffffffffffffffffffffffffffffffffffffffff160217905550565b606060008060008060006110e387610a3c565b95506110ee876122b3565b15156110f957600080fd5b600094505b855185101561134d5760058581548110151561111657fe5b9060005260206000200160009054906101000a900473ffffffffffffffffffffffffffffffffffffffff1693508373ffffffffffffffffffffffffffffffffffffffff166323b872dd3330898981518110151561116f57fe5b906020019060200201516040518463ffffffff167c0100000000000000000000000000000000000000000000000000000000028152600401808473ffffffffffffffffffffffffffffffffffffffff1673ffffffffffffffffffffffffffffffffffffffff1681526020018373ffffffffffffffffffffffffffffffffffffffff1673ffffffffffffffffffffffffffffffffffffffff1681526020018281526020019350505050602060405180830381600087803b15801561123157600080fd5b505af1158015611245573d6000803e3d6000fd5b505050506040513d602081101561125b57600080fd5b810190808051906020019092919050505015611340576112eb868681518110151561128257fe5b90602001906020020151600360003373ffffffffffffffffffffffffffffffffffffffff1673ffffffffffffffffffffffffffffffffffffffff16815260200190815260200160002060008881526020019081526020016000205461236190919063ffffffff16565b600360003373ffffffffffffffffffffffffffffffffffffffff1673ffffffffffffffffffffffffffffffffffffffff1681526020019081526020016000206000878152602001908152602001600020819055505b84806001019550506110fe565b600660009054906101000a900473ffffffffffffffffffffffffffffffffffffffff1692508273ffffffffffffffffffffffffffffffffffffffff166318160ddd6040518163ffffffff167c0100000000000000000000000000000000000000000000000000000000028152600401602060405180830381600087803b1580156113d657600080fd5b505af11580156113ea573d6000803e3d6000fd5b505050506040513d602081101561140057600080fd5b8101908080519060200190929190505050915061142760018361236190919063ffffffff16565b90508273ffffffffffffffffffffffffffffffffffffffff16634f558e79826040518263ffffffff167c010000000000000000000000000000000000000000000000000000000002815260040180828152602001915050602060405180830381600087803b15801561149857600080fd5b505af11580156114ac573d6000803e3d6000fd5b505050506040513d60208110156114c257600080fd5b8101908080519060200190929190505050151561165a578273ffffffffffffffffffffffffffffffffffffffff16630d4d15136000809054906101000a900473ffffffffffffffffffffffffffffffffffffffff1683336040518463ffffffff167c0100000000000000000000000000000000000000000000000000000000028152600401808473ffffffffffffffffffffffffffffffffffffffff1673ffffffffffffffffffffffffffffffffffffffff1681526020018381526020018273ffffffffffffffffffffffffffffffffffffffff1673ffffffffffffffffffffffffffffffffffffffff1681526020019350505050600060405180830381600087803b1580156115d157600080fd5b505af11580156115e5573d6000803e3d6000fd5b50505050806007886040518082805190602001908083835b60208310151561162257805182526020820191506020810190506020830392506115fd565b6001836020036101000a0380198251168184511680821785525050505050509050019150509081526020016040518091039020819055505b7f6b2560419fa253469f459d29361fc3c8cacca56f9b32d87dba285dfb1d847c4c81886040518083815260200180602001828103825283818151815260200191508051906020019080838360005b838110156116c35780820151818401526020810190506116a8565b50505050905090810190601f1680156116f05780820380516001836020036101000a031916815260200191505b50935050505060405180910390a150505050505050565b600260003373ffffffffffffffffffffffffffffffffffffffff1673ffffffffffffffffffffffffffffffffffffffff16815260200190815260200160002060009054906101000a900460ff16151561175f57600080fd5b8073ffffffffffffffffffffffffffffffffffffffff1660058381548110151561178557fe5b9060005260206000200160009054906101000a900473ffffffffffffffffffffffffffffffffffffffff1673ffffffffffffffffffffffffffffffffffffffff161415156117d257600080fd5b60056001600580549050038154811015156117e957fe5b9060005260206000200160009054906101000a900473ffffffffffffffffffffffffffffffffffffffff1660058381548110151561182357fe5b9060005260206000200160006101000a81548173ffffffffffffffffffffffffffffffffffffffff021916908373ffffffffffffffffffffffffffffffffffffffff160217905550600560016005805490500381548110151561188257fe5b9060005260206000200160006101000a81549073ffffffffffffffffffffffffffffffffffffffff021916905560058054809190600190036118c491906127d8565b50817f6312a5724715059a618fce3b8ffaf24c687adac40d772218b27172ce70d56627826005858154811015156118f757fe5b9060005260206000200160009054906101000a900473ffffffffffffffffffffffffffffffffffffffff16600580549050604051808473ffffffffffffffffffffffffffffffffffffffff1673ffffffffffffffffffffffffffffffffffffffff1681526020018373ffffffffffffffffffffffffffffffffffffffff1673ffffffffffffffffffffffffffffffffffffffff168152602001828152602001935050505060405180910390a25050565b6000809054906101000a900473ffffffffffffffffffffffffffffffffffffffff1681565b600260003373ffffffffffffffffffffffffffffffffffffffff1673ffffffffffffffffffffffffffffffffffffffff16815260200190815260200160002060009054906101000a900460ff161515611a2457600080fd5b611a438173ffffffffffffffffffffffffffffffffffffffff16612382565b1515611a4e57600080fd5b60058190806001815401808255809150509060018203906000526020600020016000909192909190916101000a81548173ffffffffffffffffffffffffffffffffffffffff021916908373ffffffffffffffffffffffffffffffffffffffff160217905550506001600580549050037f2f141f824ceb989fec246a619767150637c87e946dc8909ba11e85b90aab907d82604051808273ffffffffffffffffffffffffffffffffffffffff1673ffffffffffffffffffffffffffffffffffffffff16815260200191505060405180910390a250565b60008060606000806000600660009054906101000a900473ffffffffffffffffffffffffffffffffffffffff1695506007876040518082805190602001908083835b602083101515611b8a5780518252602082019150602081019050602083039250611b65565b6001836020036101000a0380198251168184511680821785525050505050509050019150509081526020016040518091039020549450611bc987612395565b1515611bd457600080fd5b611bdd87610a3c565b9350600092505b8351831015611dff57600583815481101515611bfc57fe5b9060005260206000200160009054906101000a900473ffffffffffffffffffffffffffffffffffffffff1691508173ffffffffffffffffffffffffffffffffffffffff1663a9059cbb338686815181101515611c5457fe5b906020019060200201516040518363ffffffff167c0100000000000000000000000000000000000000000000000000000000028152600401808373ffffffffffffffffffffffffffffffffffffffff1673ffffffffffffffffffffffffffffffffffffffff16815260200182815260200192505050602060405180830381600087803b158015611ce357600080fd5b505af1158015611cf7573d6000803e3d6000fd5b505050506040513d6020811015611d0d57600080fd5b810190808051906020019092919050505015611df257611d9d8484815181101515611d3457fe5b90602001906020020151600360003373ffffffffffffffffffffffffffffffffffffffff1673ffffffffffffffffffffffffffffffffffffffff16815260200190815260200160002060008681526020019081526020016000205461265390919063ffffffff16565b600360003373ffffffffffffffffffffffffffffffffffffffff1673ffffffffffffffffffffffffffffffffffffffff1681526020019081526020016000206000858152602001908152602001600020819055505b8280600101935050611be4565b8573ffffffffffffffffffffffffffffffffffffffff16636352211e866040518263ffffffff167c010000000000000000000000000000000000000000000000000000000002815260040180828152602001915050602060405180830381600087803b158015611e6e57600080fd5b505af1158015611e82573d6000803e3d6000fd5b505050506040513d6020811015611e9857600080fd5b810190808051906020019092919050505090508573ffffffffffffffffffffffffffffffffffffffff1663b8ce670d8287336040518463ffffffff167c0100000000000000000000000000000000000000000000000000000000028152600401808473ffffffffffffffffffffffffffffffffffffffff1673ffffffffffffffffffffffffffffffffffffffff1681526020018381526020018273ffffffffffffffffffffffffffffffffffffffff1673ffffffffffffffffffffffffffffffffffffffff1681526020019350505050600060405180830381600087803b158015611f8257600080fd5b505af1158015611f96573d6000803e3d6000fd5b505050507fb0b531c5ec015e59697e5fa6c6484df49e99796181e8c20700511ebdc3186bb485886040518083815260200180602001828103825283818151815260200191508051906020019080838360005b83811015612003578082015181840152602081019050611fe8565b50505050905090810190601f1680156120305780820380516001836020036101000a031916815260200191505b50935050505060405180910390a150505050505050565b6000600260003373ffffffffffffffffffffffffffffffffffffffff1673ffffffffffffffffffffffffffffffffffffffff16815260200190815260200160002060009054906101000a900460ff1615156120a157600080fd5b6120c08273ffffffffffffffffffffffffffffffffffffffff16612382565b15156120cb57600080fd5b600660009054906101000a900473ffffffffffffffffffffffffffffffffffffffff16905081600660006101000a81548173ffffffffffffffffffffffffffffffffffffffff021916908373ffffffffffffffffffffffffffffffffffffffff1602179055507f453af2f93a8a6ea4d9591bc69c57ed5aed4a5a0d3fdce8f535629cc17d849fd781600660009054906101000a900473ffffffffffffffffffffffffffffffffffffffff16604051808373ffffffffffffffffffffffffffffffffffffffff1673ffffffffffffffffffffffffffffffffffffffff1681526020018273ffffffffffffffffffffffffffffffffffffffff1673ffffffffffffffffffffffffffffffffffffffff1681526020019250505060405180910390a15050565b600160009054906101000a900473ffffffffffffffffffffffffffffffffffffffff1681565b6000809054906101000a900473ffffffffffffffffffffffffffffffffffffffff1673ffffffffffffffffffffffffffffffffffffffff163373ffffffffffffffffffffffffffffffffffffffff1614151561226f57600080fd5b80600160006101000a81548173ffffffffffffffffffffffffffffffffffffffff021916908373ffffffffffffffffffffffffffffffffffffffff16021790555050565b6000606060006122c284610a3c565b91506007846040518082805190602001908083835b6020831015156122fc57805182526020820191506020810190506020830392506122d7565b6001836020036101000a038019825116818451168082178552505050505050905001915050908152602001604051809103902054905061233b82612674565b80156123475750600081145b15612355576001925061235a565b600092505b5050919050565b600080828401905083811015151561237857600080fd5b8091505092915050565b600080823b905060008111915050919050565b6000806000600660009054906101000a900473ffffffffffffffffffffffffffffffffffffffff1691506007846040518082805190602001908083835b6020831015156123f757805182526020820191506020810190506020830392506123d2565b6001836020036101000a03801982511681845116808217855250505050505090500191505090815260200160405180910390205490508173ffffffffffffffffffffffffffffffffffffffff16634f558e79826040518263ffffffff167c010000000000000000000000000000000000000000000000000000000002815260040180828152602001915050602060405180830381600087803b15801561249c57600080fd5b505af11580156124b0573d6000803e3d6000fd5b505050506040513d60208110156124c657600080fd5b810190808051906020019092919050505080156125b757508173ffffffffffffffffffffffffffffffffffffffff1663c4f06ba9826040518263ffffffff167c010000000000000000000000000000000000000000000000000000000002815260040180828152602001915050602060405180830381600087803b15801561254d57600080fd5b505af1158015612561573d6000803e3d6000fd5b505050506040513d602081101561257757600080fd5b810190808051906020019092919050505073ffffffffffffffffffffffffffffffffffffffff163373ffffffffffffffffffffffffffffffffffffffff16145b801561263957506004846040518082805190602001908083835b6020831015156125f657805182526020820191506020810190506020830392506125d1565b6001836020036101000a038019825116818451168082178552505050505050905001915050908152602001604051809103902060009054906101000a900460ff16155b15612647576001925061264c565b600092505b5050919050565b60008083831115151561266557600080fd5b82840390508091505092915050565b60008060008091505b83518210156127cc5760058281548110151561269557fe5b9060005260206000200160009054906101000a900473ffffffffffffffffffffffffffffffffffffffff16905083828151811015156126d057fe5b906020019060200201518173ffffffffffffffffffffffffffffffffffffffff166370a08231336040518263ffffffff167c0100000000000000000000000000000000000000000000000000000000028152600401808273ffffffffffffffffffffffffffffffffffffffff1673ffffffffffffffffffffffffffffffffffffffff168152602001915050602060405180830381600087803b15801561277557600080fd5b505af1158015612789573d6000803e3d6000fd5b505050506040513d602081101561279f57600080fd5b810190808051906020019092919050505010156127bf57600092506127d1565b818060010192505061267d565b600192505b5050919050565b8154818355818111156127ff578183600052602060002091820191016127fe9190612804565b5b505050565b61282691905b8082111561282257600081600090555060010161280a565b5090565b905600a165627a7a72305820e9dfcefff0678751641f900bbcfcaac7e2a56797bb7bcb6a7fc1f8fd06db81080029",
  "source": "pragma solidity ^0.4.24;\r\n\r\nimport \"./Owned.sol\";\r\nimport \"./AddressUtils.sol\";\r\nimport \"./SafeMath.sol\";\r\n\r\ncontract WareHouse is Owned {\r\n    using AddressUtils for address;\r\n    using SafeMath for uint256;\r\n\r\n    mapping(address => mapping(uint256 => uint256)) depositOf; // ERC20\r\n    mapping(string => bool) isLock;\r\n    // AB\r\n    address[] public addressOf;\r\n    address public BPaddress;\r\n\r\n    mapping(string => uint256) indexOfBPhash;\r\n\r\n    event AddABaddress(uint256 indexed _indexed, address _ABaddress);\r\n    event DelABaddress(uint256 indexed _indexed, address _BeforeAddress, address _nowAddress, uint256 _length);\r\n    event ChangeBPaddress(address _before, address _now);\r\n    event Compose(uint256 _BPindex, string _BPhash);\r\n    event DeCompose(uint256 _BPindex, string _BPhash);\r\n    event GetAB(address _ABaddress, address _toAddress, uint256 _amount);\r\n\r\n    constructor() \r\n        public \r\n    {\r\n        owner = msg.sender;\r\n        admins[msg.sender] = true;\r\n    }\r\n\r\n    function addABaddress(address _ABaddress)\r\n        public\r\n        onlyAdmins\r\n    {\r\n        require(_ABaddress.isContract());\r\n\r\n        addressOf.push(_ABaddress);\r\n\r\n        emit AddABaddress(addressOf.length - 1, _ABaddress);\r\n    }\r\n\r\n    // OracleABdepositOf\r\n    function delABaddress(uint256 _index, address _ABaddress)\r\n        public\r\n        onlyAdmins\r\n    {\r\n        require(addressOf[_index] == _ABaddress);\r\n        \r\n        addressOf[_index] = addressOf[addressOf.length - 1];\r\n        delete addressOf[addressOf.length - 1];\r\n        addressOf.length--;\r\n\r\n        emit DelABaddress(_index, _ABaddress, addressOf[_index], addressOf.length);\r\n    }\r\n\r\n    function changeBPaddress(address _new)\r\n        public\r\n        onlyAdmins\r\n    {\r\n        require(_new.isContract());\r\n\r\n        address _before = BPaddress;\r\n        BPaddress = _new;\r\n        \r\n        emit ChangeBPaddress(_before, BPaddress);\r\n    }\r\n\r\n    function compose(string BPhash)\r\n        public \r\n    {\r\n        uint256[] memory arr = estimate(BPhash);\r\n\r\n        require(canCompose(BPhash));\r\n            \r\n        // ABaddressOfABarraddressOf\r\n        for (uint256 i = 0; i < arr.length; i++) {\r\n            ERC20 AB = ERC20(addressOf[i]);\r\n            if(AB.transferFrom(msg.sender,this, arr[i])) {\r\n                depositOf[msg.sender][i] = depositOf[msg.sender][i].add(arr[i]);\r\n            }         \r\n        }\r\n\r\n        BP bp = BP(BPaddress);\r\n        // tokenId \r\n        uint256 _totalSupply = bp.totalSupply();\r\n        uint256 _tokenId = _totalSupply.add(1);\r\n\r\n        if(!bp.exists(_tokenId)) {\r\n            bp.mint(owner, _tokenId, msg.sender);\r\n            indexOfBPhash[BPhash] = _tokenId;\r\n        }\r\n\r\n        emit Compose(_tokenId, BPhash);\r\n\r\n    }\r\n\r\n    function canCompose(string BPhash)\r\n        internal\r\n        view\r\n        returns(bool)\r\n    {\r\n        uint256[] memory arr = estimate(BPhash);\r\n        uint256 _tokenId = indexOfBPhash[BPhash];\r\n\r\n        if(checkBalance(arr) && _tokenId == 0) {\r\n            return true;\r\n        } else {\r\n            return false;\r\n        }        \r\n    }\r\n\r\n    function deCompose(string BPhash)\r\n        public\r\n    {\r\n        BP bp = BP(BPaddress);\r\n        uint256 _tokenId = indexOfBPhash[BPhash];\r\n\r\n        require(canDeCompose(BPhash));\r\n\r\n        uint256[] memory arr = estimate(BPhash);\r\n        for (uint256 i = 0; i < arr.length; i++) {\r\n            ERC20 AB = ERC20(addressOf[i]);\r\n            if(AB.transfer(msg.sender,arr[i])) {\r\n                depositOf[msg.sender][i] = depositOf[msg.sender][i].sub(arr[i]);\r\n            }\r\n        }\r\n\r\n        address _owner = bp.ownerOf(_tokenId);\r\n        bp.burn(_owner, _tokenId, msg.sender);\r\n\r\n        emit DeCompose(_tokenId, BPhash);\r\n    }\r\n\r\n    function canDeCompose(string BPhash)\r\n        internal\r\n        view\r\n        returns(bool)\r\n    {\r\n        BP bp = BP(BPaddress);\r\n        uint256 _tokenId = indexOfBPhash[BPhash];\r\n\r\n        if(bp.exists(_tokenId) && msg.sender == bp.makerOf(_tokenId) && !isLock[BPhash]) {\r\n            return true;\r\n        } else {\r\n            return false;\r\n        }\r\n    }\r\n\r\n    // oracle\r\n    function estimate(string BPhash)\r\n        public\r\n        view\r\n        returns(uint256[])\r\n    {\r\n        uint256[] memory a = new uint256[](2);\r\n        for (uint256 i = 0; i < a.length; i++) {\r\n            a[i] = (i+1) * 1 ether;\r\n        }\r\n\r\n        return a;\r\n    }\r\n\r\n    function setLock(string BPhash, bool lock)\r\n        public\r\n        onlyAdmins\r\n    {\r\n        isLock[BPhash] = lock;\r\n    }\r\n\r\n    function lockState(string BPhash)\r\n        public\r\n        view\r\n        returns(bool)\r\n    {\r\n        return isLock[BPhash];    \r\n    }\r\n\r\n\r\n    function checkBalance(uint256[] _array)\r\n        internal\r\n        view\r\n        returns(bool)\r\n    {\r\n        for(uint256 i = 0; i < _array.length; i++) {\r\n            ERC20 AB = ERC20(addressOf[i]);\r\n            if (AB.balanceOf(msg.sender) < _array[i]) {\r\n                return false;\r\n            } \r\n        }\r\n\r\n        return true;\r\n    }\r\n\r\n    function getABsort() \r\n        public\r\n        view\r\n        returns(uint256)\r\n    {\r\n        return addressOf.length;\r\n    }\r\n\r\n    function getABaddress(uint256 _index)\r\n        public\r\n        view\r\n        returns(address)\r\n    {\r\n        require(_index < addressOf.length);\r\n        return addressOf[_index];\r\n    }\r\n    \r\n\r\n    function getTokenId(string BPhash)\r\n        public\r\n        view\r\n        returns(uint256)\r\n    {\r\n        return indexOfBPhash[BPhash];\r\n    }\r\n\r\n    function getERC20(address _ABaddress, address _toAddress, uint256 _amount)\r\n        public\r\n        onlyAdmins\r\n    {\r\n        ERC20 AB = ERC20(_ABaddress);\r\n        AB.transfer(_toAddress, _amount);\r\n\r\n        emit GetAB(_ABaddress, _toAddress, _amount);\r\n    }\r\n\r\n}\r\n\r\ninterface  ERC20 {\r\n    function totalSupply() external view returns (uint256);\r\n    function balanceOf(address tokenOwner) external view returns (uint256 balance);\r\n    function allowance(address tokenOwner, address spender) external view returns (uint256 remaining);\r\n    function transfer(address to, uint256 tokens) external returns (bool success);\r\n    function approve(address spender, uint256 tokens) external returns (bool success);\r\n    function transferFrom(address from, address to, uint256 tokens) external returns (bool success);\r\n\r\n    event Transfer(address indexed from, address indexed to, uint256 tokens);\r\n    event Approval(address indexed tokenOwner, address indexed spender, uint256 tokens);\r\n}\r\n\r\ninterface BP {\r\n    function mint(address _to, uint256 _tokenId, address _maker) external;\r\n    function burn(address _owner, uint256 _tokenId, address _maker) external;\r\n    function totalSupply() external view returns (uint256);\r\n    function exists(uint256 _tokenId) external view returns (bool _exists);    \r\n    function makerOf(uint256 _tokenId) external view returns (address);\r\n    function ownerOf(uint256 _tokenId) external view returns (address);\r\n}",
  "sourcePath": "/Users/zhouliqihan/proj/tac/LeblockPlatformJs/contracts/WareHouse.sol",
  "compiler": {
    "name": "solc",
    "version": "0.4.24+commit.e67f0147.Emscripten.clang"
  },
  "schemaVersion": "2.0.1",
  "updatedAt": "2018-09-25T17:30:05.719Z"
}